:101828007F0A7E0012001EC2AFC28712194A121C1C
:101838000D7B007A00792B744812185B7B017A00C3
:101848007901748C12185B121665120C6D121B024A
:0D185800D2AF229000CEF0E4FD121B43221F
:101C7200E49000C7F01218288009E52B70051205C0
:081C82001980F7E4F52B80F254
:091D5C0008E6A3F008E6A3F0225A
:1013B5007873E690009AF0121D5C121D5CA374CC44
:1013C500F0121A127D417F25121CB9121C277F6469
:1013D5007E0012001E9000D27403F07F06121703E0
:1013E500EF6004D20880099000D2E014F0E070EBC1
:1013F5007B007A0079739000D87405F07F2A121467
:10140500177F301214177F2B121A91121C40E4F526
:011415002BAB
:1014160022121A917B007A0079739000D87405F035
:0114260022A3
:100D40004100E4004100E0004100E1FF4100E20019
:040D50004100E3007B
:101915007B007A00796074089000CEF0E4FD229097
:101925000050E0640122900094F09000007406F0ED
:10193500224387405387F99000CAE0F58F227B0048
:051945007A00796F2219
:04000600E4F52C22CF
:10051900E49000C9F0120006E52B6003020704E528
:100529002C1460310470310535E535D3941440033A
:10053900E4F535201514201C0620000330200BD2C9
:1005490015121D19121D48121C40120303120B71BA
:10055900120F728003120EB93007BDC20790004D09
:10056900E0B433B4A3E0FF6433703612192470A8E1
:10057900D2167886E624FE601214601414601614EC
:10058900601924047092754E03808D754E0480881D
:10059900754E058083754E06020521754E070205C5
:1005A90021EFB434191219246003020521D216303F
:1005B9001306754E01020521754E020205219000B0
:1005C9004EE0FFB43511900050E0B40105C21802A5
:1005D9000521D218020521EF6401600790004EE061
:1005E900FF7046202D030205219000947406F090B7
:1005F9000000F0E49000C8F0900094E0FE9000C87C
:10060900E0FDC39E4003020521744E2DF582E434BA
:1006190000F583E0FE748D2DF582E43400F583EE58
:10062900F09000C8E004F080CFEF64377041202DCE
:1006390003020521740412192BE49000C8F09000FC
:1006490094E0FF9000C8E0FEC39F400302052174B7
:10065900502EF582E43400F583E0FF748D2EF58287
:10066900E43400F583EFF09000C8E004F080CF9007
:10067900004EE0FFB438191219246003020521D293
:1006890016302D06754E08020521754E0902052101
:10069900EFB4391A121924600302052174021219E0
:1006A9002B90008D7456F0A37478F0020521900008
:1006B9004EE0FFB43A241219246003020521900088
:1006C90094740312192E90008D7412F0A37434F0EF
:1006D900A37488F0639001020521EF643B60030273
:1006E90005211219246003020521D216300C067562
:0B06F9004E0A020521754E0B02052180
:0107040022D2
:100303009000CB7496F0E4A3F09000CB2008057422
:1003130019F080037496F09000CBE0FF900099E011
:10032300D39F4032E4F03008028026900093E0B47B
:10033300030D74FFF01213B5E49000E0F080129007
:1003430000E0E0700C04F07B001204EC7F2B121A27
:10035300917F01021AB99000CBE014FF900099E05D
:100363006F7009FB1204EC7F2B021A91121798206D
:1003730030030204EBC230E4900099F07FF47E0175
:1003830012001E121C277F017E0012001E121D196F
:10039300121D487D707F27121CB97F01900000E079
:1003A300D394004003E014F0900000E06007900055
:1003B30094E0FF800C7E0690008DE4F0A3DEFC7ECB
:1003C300067B017A00798D9000D8EFF07FA0121A96
:1003D300917F07121D3EEF547060F6121C40D20845
:1003E3002015030204EBE5306406702D90009FE0B6
:1003F3009000CCF030E004D2138002C2139000CC02
:10040300E0C313F030E004D20C8002C20C9000CCA5
:10041300E0C3137886F65407F6E530640270609003
:10042300009AE0FF54F07057EF540FFF9000E1E0A3
:100433006F70030204EB90009AE09000E1F0D21693
:1004430090009BE070030204EB1209ED04680004C2
:100453006C01046E02047204047E05047608047AB7
:1004630010000004EBE4F54E228010754E02227555
:100473004E0322754E0422754E0522754E0122E568
:1004830030B4061290009BE0703CA3E07038A3E008
:100493007034A3E070309000BAE0FF90009BE06FEF
:1004A30070249000BBE0FF90009CE06F70189000F8
:1004B300BCE0FF90009DE06F700C9000BDE0FF90EA
:1004C300009EE06F602290009BE09000BAF09000E5
:1004D3009CE09000BBF090009DE09000BCF0900089
:0804E3009EE09000BDF0D2057F
:1004EB00227A0079739000D87405F07F2A121A9142
:1004FB007B007A0079739000D87405F07F30121A64
:0E050B00917B007A0079739000D87405F0227D
:100B7100302320C22330060DD216E4F54E9000E258
:100B81007404F0800E30280BD216E4F54E9000E28A
:100B91007402F0201603020C4AC216E54E70309022
:100BA10000E2E0FFB40412756F03E4F570F571D251
:100BB1002CC206757203020C4AEF64026003020C38
:100BC1004AFB121917121B43D22AC228020C4A12DD
:100BD1001915121B43121943740312191D121B43D9
:100BE100E54E1209ED0C0B010C10020C15030C1A49
:100BF100040C1F050C24060C29070C2E080C3309C4
:100C01000C380A0C3D0B00000C4A75621B803075D4
:100C1100621D802B756216802675621880217562AF
:100C210019801C75621A801775621C801275621218
:100C3100800D75621380087562148003756217D286
:100C41002AD2289000E27402F030051FC205201854
:100C51001AD22B90009BE05401F0753F01F540A39F
:0B0C6100E0F541A3E0F542A3E0F543FD
:010C6C002265
:100F7200302A1F30261C7B007A0079607D087F01B1
:100F8200121246121915121B43C22AC2267F0112DF
:100F92001CEA302B3A302737E547700F30190C30F6
:100FA2001C09FB7A00793F7D0280087B007A007978
:100FB2003F7D057F021212467A00793F120FFD7AB9
:100FC200007968120FFDC22BC2277F02121CEA3081
:100FD2002C28302925C20DC222121943AD727F037B
:100FE2001212461219439000CE7403F0E4FD121B54
:100FF20043C22CC2297F03121CEA227B009000CE3E
:091002007407F0E4FD121B432207
:100EB90090080CE04402F0900841E04402F09000F0
:100EC900CAE58FF0758F40E4F5E75387BFC287C243
:100ED9008DC28C758A1A758CFED28C5387E77587FB
:100EE9000500D287C28DC28C758ADC758CFFD28CC5
:100EF9005387E775870512179830304BC23012199E
:100F090036300E36900812E064EE6008900841749D
:100F190080F080F07F887E1312001E90084174844F
:100F2900F0E04401F07FC47E0912001E900841E000
:100F390054FEF0C211E4F52C800D900841E0440202
:100F4900F0758F405387BF201183D22A121936902A
:100F59000812E064EE60089008417480F080F09017
:080F690008417484F0E4F52C4A
:010F7100225D
:061DD0009000E5EFF02297
:101AB900900093E0B4FF04E4F0800E900093E02FCF
:101AC900F0E0C394044002E4F0900093E09014EC39
:071AD90093FD7F25021CB9FB
:101A12007BFF7A1479F09000D87405F07F2A121AAD
:101A22002D7F30121A2D7F2B021A91121A917BFFF1
:0B1A32007A1479F09000D87405F022BF
:0E1D0B00E475F0010209C1F0A374EEF0A3220A
:10194A0075D8E0E4F5877F2C7E0112001E1219B4C7
:10195A007F01121B8175DE947FC87E0012001E75FE
:10196A00DE90E4F58F758E387F64FE12001E75874F
:05197A004043E90422D6
:1019B40075AA0FE4F5BA759A0FF5B1F5C4F5ABF550
:1019C400BBF59BF5B2F5C575AC0EF5BC759C0EF573
:1019D400B3F5C675ADFFF5BD759DFFF5B4F5C7222A
:10166500754602900841E054FDF0900810E064C210
:10167500600574C2F080F37F2C7E0112001E900875
:1016850040E4F090081074C2F0A3E4121D127440F7
:10169500121D127480121D1274C0F090080C74FE95
:1016A500F0A3E4F053EAFB900841E04480F0D2EA6D
:0116B5002212
:101B43009000CA1209D89000CEE060129000CA1229
:0F1B53001D0BED1208EC9000CEE014F080E8229C
:101A68009000D91209D89000DFE0601C9000DC12C9
:101A78001D0B1208A6FF9000D9121D0BEF1208ECDF
:091A88009000DFE014F080DE2282
:03000B0002100BD5
:10100B00C0E0C0F0C083C082C0D0E8C0E0C28DC2D7
:10101B008C758AD0758CE0D28C054F055005510527
:10102B00520553E553C394644005755300D22330E6
:10103B00081F900095E475F001120920C3900096EB
:10104B00E094E8900095E094034006E4F0A3F0C22E
:10105B0008200B25900097E475F001120920D3901E
:10106B000098E094D0900097E094074015E4F0A32B
:10107B00F0C22DC218C20C8009C20B900097E4F08D
:10108B00A3F0900099E004F0D204D0E0F8D0D0D0D7
:08109B0082D083D0F0D0E032D6
:03001B0002000AD6
:01000A0032C3
:0300030002000EEA
:01000E0032BF
:0300130002000FD9
:01000F0032BE
:03004300021D6536
:081D6500C0E0759100D0E032EE
:03004B00021D6D26
:081D6D00C0E0759100D0E032E6
:03005B00021D750E
:081D7500C0E0759100D0E032DE
:03006300021D7DFE
:081D7D00C0E0759100D0E032D6
:03006B00021D85EE
:081D8500C0E0759100D0E032CE
:03007300021D8DDE
:081D8D00C0E05391BFD0E03229
:03007B00021D95CE
:081D9500C0E0759100D0E032BE
:03005300020DFF9C
:100DFF00C0E0C0F0C083C082C0D0E8C0E0E9C0E06E
:100E0F00EAC0E0EBC0E0ECC0E0EDC0E0EEC0E0EF28
:100E1F00C0E090080AE020E704E030E60312007E0D
:100E2F0090080AE030E5031216B690080AE030E4A5
:100E3F000312161290080AE030E30312197F90088C
:100E4F000AE030E203121CA290080AE030E103121C
:100E5F001D2790080AE030E003121DAD90080BE04B
:100E6F0030E703121DB490080BE030E603121DBBF0
:100E7F0090080BE030E503121DC290080BE030E440
:100E8F0003121DC95391FBD0E0FFD0E0FED0E0FD6F
:100E9F00D0E0FCD0E0FBD0E0FAD0E0F9D0E0F8D021
:0A0EAF00D0D082D083D0F0D0E03222
:03003300021D9D0E
:081D9D00C0E05393EFD0E032E7
:10149100007E013F023F03030412052806270707C8
:1014A100080009000C120D130E140F151120122043
:1014B100132014201520162017001C3F1D070400BF
:1014C100052D06070707F9968ADB24060FB60012D9
:1014D100730036B48000F996821B412008048120F4
:1014E100CFF7FEFFFF000001000200194E412B1152
:0414F1002233445509
:100D5400042700AAAAAAC108C101C103C113C1186A
:100D6400C105C116C11FC1B1C10FC11BC12EC10232
:100D7400C110C130C10BC12DC10CC125C112C109A3
:100D8400C10DC124C122C11EC12FC18EC111C11404
:100D9400C107C12AC12BC12CC1A6C1A7C1A9C123A6
:100DA400C11CC100C119C115C120C128C106C11A85
:100DB400C10AC104C11DC121C117018600019B00E4
:100DC400108708254415284D0723430A2A370E1C8B
:100DD40031290573A33E145B60057DC30016202AE8
:100DE4004100940041009900410000004200950038
:0A0DF4000042009700004100930048
:10155800ECFF3395E0FEEF25E0FBEE33FA74912BB8
:10156800F58274143AF583E4934420FF74922BF5C2
:101578008274143AF583E493FD121CB91C2290146A
:10158800C712096B9000C902097BA3E49308F6A36C
:10159800E49308F6221209D8C286121B23E4227BA0
:1015A800017A00799AF0227F07121D3ECCEFCCEC2D
:0115B8002210
:101B2300E4FEEF30E704D2848002C284EF25E0FFB5
:0F1B3300D285A283E4334FFFC2850EEEB408E3E0
:011B42002280
:041CB500E4FD7FE2E9
:0E1CB900C286121B23CFEDCF121B23D2862230
:091D3E001215A0FF121B23D2862E
:011D47002279
:031A3D009000D244
:101A400012159DFD9000D5E0FFEDC39F5017E4FFF8
:101A5000121B239000D21209B88D82758300EF12F9
:071A600008FE0D80DFD286B5
:011A6700225C
:031A91009000D5ED
:101A940012159DFD9000D8E0FFEDC39F50149000F7
:101AA400D5E475F0011209C11208A6FF121B230D1B
:041AB40080E2D28674
:011AB800220B
:0A1D4800121CB57D4E7F27021CB966
:101C2700121D48121D19C287E4FF121D3EEF54FE14
:081C3700FD7F20121CB9D287C9
:011C3F002282
:101C4000121D19121D48C287E4FF121D3EEF440108
:081C5000FD7F20121CB9D287B0
:011C58002269
:0E1D1900E4FD7FE1121CB97D307F27021CB96A
:031B6200CDEFCDF7
:101B65007F07121D3EEF5480FF6003ED6006EF70A6
:0B1B75000AED60077D537F50121CB981
:011B80002242
:031B8100CDEFCDD8
:101B8400E4FF121D3EED6006EF4402FF8004EF54B3
:0A1B9400FDFFCDEFCD7F20021CB94C
:1011BD00EFD3940540027F05EF6067146051146012
:1011CD003B14602514600F14706E9000C9120987CE
:1011DD00F996821B800A9000C9120987C196821B5D
:1011ED007F2412174F7D27804A9000C9120987C1AD
:1011FD0096821B7F2412174F7D2580379000C912D0
:10120D000987D196821B7F2412174F7D238024904E
:10121D0000C9120987C196821B7F2412174F7D23A7
:10122D0080119000C9120987C196821B7F24121765
:09123D004F7D217F26121CB9220D
:05174F009000C8EFF05E
:10175400E4FB9000C912095FC374039B75F008A4ED
:10176400F9F812094C74CD2BF582E43400F583EFBB
:10177400F00BEBB404DC7F01121B629000C8E0FFA5
:101784007B017A0079CD9000D87404F0121A91E4A8
:04179400FF021B62D3
:100C6D007F01121B817F987E3A12001EE4FF121B3A
:100C7D00627C14121558C3EC6480948050F5901F5B
:100C8D00F3E4937873F61215921215927B007A00A5
:100C9D0079739000D87405F07F2A120D307F2B12D6
:100CAD000D307F30121A917F1D121D3EEF70077DA2
:100CBD00737F50121CB97C16121558ECB414F97FC1
:100CCD0001121B621215867F2412174F9014CB123E
:100CDD0015897F2512174F9014CF1215897F2C126D
:100CED00174F9014D31215897F2D12174F9000C9ED
:100CFD00120987FF96821B7F2412174F7F2C7E01CE
:100D0D0012001E1215867F2412174F7BFF7A14795D
:100D1D00DB9000D8740BF07F2E121A91D21FE4FFD6
:030D2D00021B6244
:100D3000121A917B007A0079739000D87405F02222
:03170300CCEFCC5C
:10170600E49000D3F0FD7FE2121CB9121D1990007F
:10171600D8EC1215A77FA0121A911215AF5430609B
:10172600F9EC30E50D9000D37401F07D207F27128F
:101736001CB9EC30E40D121D19121D487D707F276F
:08174600121CB99000D3E0FF72
:01174E002278
:101798001215AF30E642FD7F27121CB97F60121D7B
:1017A8003E8F30E530D394205022E5309400401C21
:1017B8009000D5E5301215A77F61121A3DD230D2BC
:1017C8000BD22DECC3135407F52F8003121CB57FE1
:0817D80017121D3EEF30E0C4C2
:0117E00022E6
:101CD900052E532E0F7487252EF8E6FD7F25021C4D
:011CE900B941
:101BBB00EF9000C96009120987D996821B80071222
:0C1BCB000987D99682217F2412174F222F
:101BF2007548FF754914754AE622752711E4F54CBC
:0B1C0200227548FF754914754AE8225E
:101BD700EFD39403500E74272FF8E664AA6005121A
:0B1BE7001BF28003121C03754B02224E
:1010A300780AE6700F08E6700B780EE6700608E61D
:1010B30064026003121D337808E6247F6025146000
:1010C300322402705C780CE6705708E660028051A7
:1010D300300E0B7548FF754914754AEA8010121BD0
:1010E300F2800BE546640460028036121BF2754BF6
:1010F300028031E546B40405780CE660028022786C
:101103000DE6FEB481047F018010EEB482047F02F9
:101113008008780DE6B483077F03121BD780058010
:0E11230000121D33E52764AA6003121BFC2294
:1012CD00E546B404107808E66401605B780EE670BC
:1012DD005608E6600280507808E6700A780BE6B48E
:1012ED000104C20E80447808E66402703A780BE679
:1012FD007035780DE6FFB4810C900820E054FDF0B8
:10130D00E4F5288025EFB4820C900820E054FBF022
:10131D00E4F5298015780DE6B4830F900820E0548C
:10132D00F7F0E4F52A8003121D33E52764AA600364
:04133D00121B9E22BF
:10134100E546B404107808E66401605B780EE67047
:101351005608E6600280507808E6700A780BE6B419
:101361000104D20E80447808E66402703A780BE6F4
:101371007035780DE6FFB4810C900820E04402F04E
:101381007528AA8025EFB4820C900820E04404F06F
:101391007529AA8015780DE6B4830F900820E044E2
:1013A10008F0752AAA8003121D33E52764AA600399
:0413B100121B9E224B
:1018A2007808E6701B780CE6701608E6701208E6F7
:1018B200700E08E6700A780AE6700508E630E7035B
:1018C200121D33780BE660057546038003754602E8
:0A18D200E52764AA6003121C5922E6
:10070500780AE624FE602914700302084314602F5A
:1007150024E3606A1470030207CD242160030208F4
:100725006D7548FF75490A754A13754B12020870B5
:100735007548FF75490A754A25754B540208707846
:100745000BE6FF700E7548FF75490A754A2E900A2B
:100755002E806FEFB4010F7548FF75490A754A473A
:10076500900A47E4805C780BE66402600302087037
:100775007548FF75490A754A60900A608044780C8F
:10078500E6FE08E6FF4E700E7548FF75490A754A84
:1007950037900A37802CEF64014E700E7548FF754F
:1007A500490A754A50900A508018780DE664021877
:1007B5004660030208707548FF75490A754A6990D5
:1007C5000A6993F54B020870D200C219780CE6FE4F
:1007D50008E6FF4E701C7548FF75490A754A79D3BE
:1007E500780FE6944018E69400404C760008764071
:1007F5008045EF64014E701C7548FF75490A754ABE
:10080500B9D3780FE6945A18E694004005760008A7
:10081500765A8023780DE664021846704E7548FFB7
:1008250075490B754A13D3780FE6941918E69400A9
:1008350040057600087619780FE6F54B802D780B84
:10084500E6D3940240028020780BE675F003A424D9
:1008550068F582E4340BF5831209E18B488A4989EE
:100865004A1208A6F54B8003121D33780AE6FF6489
:10087500016013EF6402600EEF64036009EF640426
:100885006004EFB40511780EE6FC08E6FDC3954B50
:10089500EC940050028D4BE52764AA6003121BFC03
:0108A5002230
:1017E1007808E66480701B780AE6701608E67012C5
:1017F10008E6700E08E6700A08E6700608E664015D
:101801006005121D338016E546B40406121C0375EB
:101811004B01E546B40306121BF2754B01E5276443
:07182100AA6003121BFC2268
:1015B900E546640260227808E6701D780CE670182A
:1015C90008E6701408E6701008E6700C780AE670F0
:1015D9000708E6D394014005121D338020780BE6F5
:1015E900D39400400C754604E4F528F529F52A80C2
:1015F9000C7546037528AA7529AA752AAAE52764D0
:09160900AA6003121B9ED22022EC
:10186500E546640470227808E66481701B780AE610
:10187500701608E6701208E6700E08E6700A08E6AB
:10188500700608E664016005121D338006121BF21E
:0D189500754B01E52764AA6003121BFC22BD
:1019E4007808E66401701A780EE6701508E670113E
:1019F400780AE6700C08E6700808E6700408E660E9
:0E1A040003121D33E52764AA6003121B9E2205
:101C8A00D21C754800754900754A4D754B01E52708
:081C9A0064AA6003121BFC2286
:0A1D5200D21C780AE6F54D021B9E34
:101CC700D219754800754900754A47754B01121BB3
:021CD700FC22ED
:081DA500780BE6F547021B9ED6
:1018DC00121BF2900206E0F54B780AE6B4012008E0
:1018EC00E6B4BA1B30140AC21490000D7401F080D7
:1018FC0005E490000DF0754801754900754A0DE539
:09190C002764AA6003121BFC22EF
:101AE000754801754900754A01900206E0F54B9072
:101AF00000097401F0E52764AA6006752710E4F573
:021B00004C2275
:101C0D00438F40C2A9C28CC28D5389F0438901759F
:0A1C1D008AD0758CE0D2A9D28C2287
:0D003600C28CC28D758AD0758CE0D28C22F0
:10001E00EF4E600FE4FD000DEDB406FAEF1F70F029
:03002E001E80ED44
:0100310022AC
:101B0200438F6075985075CBFF75CACC75CDFF7544
:101B1200CCCC75C830D2CAC29D43E780C2ACD29940
:011B220022A0
:100A13001201100100000040A84501070110010266
:100A2300000109025400030100A03209040000017F
:100A33000301010009210101000122400007058192
:100A43000340000A09040100010301020009210116
:100A5300010001225A000705820340000409040231
:100A6300000103010100092101010001221900070E
:100A730005830340000A05010906A101050719E0E2
:100A830029E715002501750195088102950175086F
:100A93008103950575010508190129059102950141
:100AA3007503910395067508150026FF00050719C0
:100AB3000029658100C005010902A1010901A10006
:100AC30085010509190129051500250195057501FC
:100AD30081029501750381030501093009311581EF
:100AE300257F75089502810609381581257F7508CC
:100AF30095018106C0C00600FF0960A10185331975
:100B0300002AFF00150026FF0075089507B100C0F5
:100B1300050C0901A1018503150026800319002A8C
:100B23008003751095018100C0040309040C03536D
:100B3300006D006100720074002C0353006D0061AE
:100B43000072007400200057006900720065006C99
:100B5300006500730073002000440065007600699F
:0E0B63000063006500FF0B2CFF0B30FF0B3C06
:101427007440254AF54AE43549F54974C0254BF51A
:101437004B7440254CF54C227D40AB48AA49A94A3C
:10144700E4FF22E6FE18E6240008F6EC3E18F62232
:1014570090080A74C0F09008217401F0229000C22D
:101467007402F0A3229000CE7402F0A322F0A374BA
:1014770008F0A322A290B39290A290B39290224335
:0A1487008740900841E054FDF02278
:10007E0090080FE020E00A90080EE020E003020155
:10008E00A490080F7401F090080EF0E4F52790008C
:10009E0009F0900823E06408600302019E900200BC
:1000AE00E064217026A3E0B4092190080A74C0F020
:1000BE00121AE0900202E090000BF0900203E09022
:1000CE00000CF0E4FF121CEA0202867B007A007933
:1000DE00087D08E4FF1214F5780BE6FE18E67C00A6
:1000EE0012144E780D12144A780F12144A7808E63C
:1000FE00547F6421703D08E624FE601D14602624A2
:10010E00FA6010146019146022240A70241218DC8C
:10011E00020286121AE0020286121C8A020286125D
:10012E001D52020286121CC7020286121DA5020271
:10013E0086805D7809E61209ED016600016C010109
:10014E007203017805017E06018408018A09019077
:10015E000A01960B0000019C1210A30202861212D5
:10016E00CD0202861213410202861218A2020286E4
:10017E001207050202861217E10202861215B90253
:10018E0002861218650202861219E40202868000A7
:10019E00121D33020286E527B4210D780BE6900876
:1001AE0022F0E4F527020286E527B42008E4F527BD
:1001BE00C22F020286E52764106003020286E54B19
:1001CE00C39440400C12143F1214F512142702026D
:1001DE0073900009E0605E90000CE064037056902E
:1001EE00000BE06433704E900009F07B017A02F947
:1001FE008B488A49F54A1208A6B4330D7401254A74
:10020E00F54AE43549F549154BE4FFEFC3954B50DC
:10021E001EAB48AA49A94A8F827583001208BFFEF9
:10022E00744D2FF582E43400F583EEF00F80DCD2AE
:10023E0007D21E802DAD4B1214411214F5900009F9
:10024E00E0601F900001E0FFB4550812147B1214F9
:10025E007B80028F2D90000AE54BF0E4900009F0B0
:10026E00D21E121B9EE54C780F66700218E67006C1
:10027E00201E03121B9EC21EE5276411706AE54BF9
:10028E007006121B9E0202F690081074C2F0E54B27
:10029E00C39440400B12143F12124612142780488A
:1002AE00AB48AA49A94AAD4BE4FF121246E54B25CD
:1002BE004CF54CE4F54B12145790080AE0544C7070
:1002CE000790080FE030E0F190080AE030E6129057
:1002DE000810E0547F12145C90080A74C0F0752761
:1002EE0020D22FE4900009F0900009E07006202F34
:0402FE00031214577C
:0103020022D8
:1016B60090080FE030E7037480F090080FE030E602
:1016C600037440F090080FE030E5037420F09008B2
:1016D6000FE030E4037410F090080FE030E3037479
:1016E60008F090080FE030E2037404F090080FE071
:0D16F60030E1037402F090080A7420F02225
:1016120090080EE030E7037480F090080EE030E6A8
:10162200037440F090080EE030E5037420F0900857
:101632000EE030E4037410F090080EE030E305741D
:1016420008F0D22990080EE030E2057404F0D227A7
:1016520090080EE030E1057402F0D22690080A7478
:0316620010F02263
:10197F00C219C21CC200C211121486E04404F090B6
:10198F000822E06004E4F080F6754602E4F527755E
:10199F0028AA7529AA752AAAC22F900009F09008C3
:0519AF000A74C8F022DB
:101CA200900841E04402F090080A7404F05391FB5A
:031CB200D211222A
:0C1D270012148690080A7402F0C2112207
:071DAD0090080A7401F02206
:071DB40090080B7480F0227F
:071DBB0090080B7440F022B8
:071DC20090080B7420F022D1
:071DC90090080B7410F022DA
:0B1D33007527AA900820E04401F02270
:0914F5009000BEEDF0A31209D82D
:1014FE00EF14601114601614601B2403701D121477
:10150E0064E4F080161214647440F0800E121464B9
:10151E007480F0800612146474C0F0E4FF9000BE74
:10152E00E0FEEFC39E50229000C2E0FCA3E02FF538
:10153E0082E43CF583E0FE9000BF1209B88F8275FD
:09154E008300EE1208FE0F80D4A8
:011557002271
:091246009000CAEDF0A31209D8D2
:10124F00EF14601614602014602A240370311214F6
:10125F006CE41214747423F0802512146C74401211
:10126F0014747424F0801812146C74801214747433
:10127F0025F0800B12146C74C01214747426F0E4F1
:10128F00FF9000CAE0FEEFC39E5020A3E475F0016B
:10129F001209C11208A6FE9000CEE475F0011209E2
:1012AF003685F082F583EEF00F80D69000CAE0FF0E
:0D12BF009000D0E0FCA3E0F5828C83EFF0FE
:0112CC0022FF
:101B9E00900810E030E706E0547FF08007900810C0
:0D1BAE00E04480F0752720900823E4F02229
:101C5900752721900810E020E7047F0180027F00AA
:091C6900121CFB900823E4F02298
:101CEA007401C8EFC8088002C333D8FC900821F0F9
:011CFA0022C7
:101CFB00EF9008106005E04480F022E0547FF02262
:03000000021131B9
:0C113100787FE4F6D8FD75819B021178F0
:1008A600BB010689828A83E0225002E722BBFE0250
:0908B600E32289828A83E4932283
:1008BF00BB010CE58229F582E5833AF583E02250EE
:1008CF0006E92582F8E622BBFE06E92582F8E22238
:0D08DF00E58229F582E5833AF583E4932252
:1008EC00BB010689828A83F0225002F722BBFE01EB
:0208FC00F322E5
:1008FE00F8BB010DE58229F582E5833AF583E8F030
:10090E00225006E92582C8F622BBFE05E92582C8DB
:02091E00F222C3
:10092000C5F0F8A3E028F0C5F0F8E5821582700262
:060930001583E038F022FF
:10093600A3F8E0C5F025F0F0E58215827002158374
:06094600E0C838F0E822D1
:10094C00E8600FECC313FCED13FDEE13FEEF13FF89
:03095C00D8F122AD
:0C095F00E0FCA3E0FDA3E0FEA3E0FF220B
:10096B00E493FC740193FD740293FE740393FF22D2
:0C097B00ECF0A3EDF0A3EEF0A3EFF022EF
:10098700A8828583F0D083D08212099E12099E1215
:10099700099E12099EE473E493A3C583C5F0C5833A
:1009A700C8C582C8F0A3C583C5F0C583C8C582C8BA
:0109B700221D
:0909B800E0FBA3E0FAA3E0F92240
:1009C100F8E0FBA3A3E0F925F0F0E58215827002BF
:0709D1001583E0FA38F02263
:0909D800EBF0A3EAF0A3E9F02220
:0C09E100E493FB740193FA740293F92272
:1009ED00D083D082F8E4937012740193700DA3A399
:1009FD0093F8740193F5828883E4737402936860AD
:060A0D00EFA3A3A380DFAC
:10113D00021C72E493A3F8E493A34003F68001F23A
:10114D0008DFF48029E493A3F85407240CC8C333B3
:10115D00C4540F4420C8834004F456800146F6DF82
:10116D00E4800B0102040810204080900D40E47EC5
:10117D00019360BCA3FF543F30E509541FFEE49377
:10118D00A360010ECF54C025E060A840B8E493A33E
:10119D00FAE493A3F8E493A3C8C582C8CAC583CA69
:1011AD00F0A3C8C582C8CAC583CADFE9DEE780BE21
:010DFE0000F4
:00000001FF
