:03000000021000EB
:0304000002290FBF
:0310000002290FB3
:0C290F0078FFE4F6D8FD7581840229569B
:103755000001010201020203010202030203030444
:10376500000102010301020104010201030102013A
:10365600EEC4F854F0C868FEEFC4540F482465F56C
:103666008274373EF583E49322EF540F2465F58286
:08367600EE3437F583E49322E2
:1037B300E4F57C9009317480F0900931E030E7F949
:0C37C3007F0A7E0012396E900930E0FF92
:0137CF0022D7
:0232F2008F6AE1
:1032F400856A6CC2AFC2A17F137E0012396EE4F5F9
:103304006BE56A30E004D2A18002C2A1E56AA2E7BB
:1033140013F56A7F127E0012396E056BE56BC39458
:103324000840DED2A17F127E0012396ED2AFAF6A9E
:013334002276
:0F39C500EFC4540F90375593FEEF540F932EFF1E
:0139D40022D0
:1035C700EF6012540F60077E0012366FFF2212362B
:1035D700562404FF22EE6015FF7E00540F60071289
:0F35E700366F2408FF22123656240CFF227F0075
:0135F60022B2
:10371300E4FDFCC3ED9FEC9E5016E4FBFA000BBBEB
:1037230000010ABA03F7BBC5F40DBD00010C80E329
:013733002273
:10396E00E4FDFCC3ED9FEC9E5008000DBD00010C64
:02397E0080F1D6
:013980002224
:08000300E4F586F585F5842281
:103073007591FC759AFCE4F5D875A9FCF5AEF5EBF2
:103083007580FC75930B759E0BF5D975AA02F5AF88
:10309300F5EC7590FF759480759F80F5DAF5ABF5C7
:1030A300B4F5ED75A0FE75950275A502F5DBF5ACDB
:1030B300F5B5F5EE75B0F2F596F5A7F5DCF5ADF5DA
:0730C300B6F5EF75B7FF221F
:0620F00041013100C12E88
:10387800438540C2A9C28CC28D5389F04389017522
:083888008A2B758CEBD28C2217
:10389000438540C2ABC28EC28F53890F43891075D6
:0838A0008B66758DFDD28E22AE
:1038C000438540C2CAC2CFE4F5C875CBFF75CAFABA
:0738D00075CC9675CDF522C1
:03000B000227E9E0
:1027E900C0E0C0F0C083C082C0D0E8C0E0E9C0E06A
:1027F900EAC0E0EBC0E0ECC0E0EDC0E0EEC0E0EF25
:10280900C0E0C28CC28D758ACB758CFAD28CD21D70
:10281900E546B4010F9000E6E004F0E0D394C84027
:102829000374C8F0D22E123377D22D122E4890009D
:10283900C1E004F0E0D394C8400374C8F0900131BA
:10284900E004F0E0C394644009E4F0E546B4010211
:10285900D22BD0E0FFD0E0FED0E0FDD0E0FCD0E00C
:10286900FBD0E0FAD0E0F9D0E0F8D0D0D082D08324
:05287900D0F0D0E032B8
:03001B0002000ED2
:0D000E00C28EC28F758B66758DFDD28E324D
:03002B00023A4F47
:073A4F00C2CFC2ADC2CA32B2
:1038A800900918E4F0A3F0A37442F0900918E044DA
:0838B80004F0D2EC75EA0222D3
:030063000237D091
:1037D000C0E0C083C08253C0EF900918E04410F0ED
:0D37E000E04404F0D21DD082D083D0E0324E
:02287E008F5A6F
:102880004385807F327E0012396E9009217410F0EA
:1028900090092374C8F0A37440F0900922E4F0E09A
:1028A000FFE55A33333354F8FEEF4EF0E04402F0C4
:1028B000122900E0900920E0FD900922122900E091
:1028C0005403FE900920E0FDEDFF900922E054F949
:1028D000F0E4F053C0BF53E8BF53857FC3EF957B4F
:1028E000FFEE957AFED3EF94FFEE6480948340046C
:0F28F0007E037FFFC3EE648094805003E4FEFFFD
:1028FF0022E04442F07F327E0012396E900921228D
:020F8D008F567D
:100F8F007401C8EFC8088002C333D8FCFF4295EF45
:100F9F0042A5EFF452ACC220D2211221BDE4F55983
:100FAF00F557F558F57AF57BF559AF5612287EEFC0
:100FBF002558F558EE3557F5579000BEEEF0A3EFD4
:100FCF00F00559E559C3942040E0E558AE57780530
:100FDF00CEC313CE13D8F9F57B8E7AE4257BF57B40
:0D0FEF0074FE357AF57AC220C2210221BDC0
:10347900649B649B649C23C05380FC3DC800009AF4
:1034890040C086E41949DCEDB4817807800002FE6A
:10349900FF262808E01111130C00127300B6B7803B
:0C34A90000412008048120CFF7FEFFFF47
:0E20F600450126C30016202A041C194E412B5A
:1027520078877C087D017B017A0179217E007F05E3
:102762001204D378957A0179217C087D017B017E60
:10277200007F050204D3F55DE55CF55CE55BF55B86
:10278200E55A224FF09008B57401F022AF62AE61B3
:10279200AD60AC5F02079DAF53AE52AD51AC50027B
:1027A200079DE4F0A3F0A3F0A322F8EF4BFFEE4A5B
:1027B200FEED49FDEC48FCEC22F09008B5E4F09007
:1027C2000880E0227C087D017BFF7A3479792290AF
:1027D20008B674A0F0229008B5E4F0900886E022D2
:0727E2009008837403F0224C
:1021BD0090349A1207C3E4FFFEE4FC780812079DE1
:1021CD00ECC0E0EDC0E0EEC0E0EFC0E01207C3E40C
:1021DD00FFFEFDEC781812079DD0E0FBD0E0FAD0A1
:1021ED00E0F9D0E01227ACC0E0EDC0E0EEC0E0EFCA
:1021FD00C0E01207C3E4FFE4FDFC78081207B0D07D
:10220D00E0FBD0E0FAD0E0F9D0E01227ACC0E0ED71
:10221D00C0E0EEC0E0EFC0E01207C3E4FEFDFC78C5
:10222D00181207B0D0E0FBD0E0FAD0E0F9D0E0F81A
:10223D00EF4BF55DEE4AF55CED49F55BEC48F55A73
:10224D00E55D3021091227784402F55A80071227DF
:10225D007854FDF55AE55D3020091227784401F5D3
:10226D005A800712277854FEF55A855D62855C61A8
:0B227D00855B60855A5F7F070203C28B
:101A8000E4F54EE54E25E025E0247EF582E434348D
:101A9000F5831207C38F538E528D518C50AF4E1267
:101AA0003593054EE54ED3940840D87552FF7553D3
:101AB000347554A275550075560479A2121B92759F
:101AC00052FF7553347554A675550075560479A6A2
:101AD000121B927552FF7553347554AA75550075D3
:101AE000560B7B017A0879AA1235279008D0122765
:101AF000A47496F0A31227A474A0F0A3740AF0A310
:101B0000E4F0A3F0A374B0F0A37401F0A3E4F0A395
:101B10007409F0A374AAF0A37482F0A374FFF0A375
:101B20007407F0A37481F0900880747FF0A3743F71
:101B3000F0A37401F0A37403F0A37414F0A3742849
:101B4000F0A314F078877A01792612276B788C122B
:101B500027679008917412F0A304F0A304F0A30483
:101B6000F012276590089A7410F0A374201227A52C
:101B7000F0A3F0A3743FF0A37407F0900880E05442
:101B8000FDF0E04402F0E054FDF09008B5E4F0040C
:011B9000F064
:091B9100227B017A08123527229B
:1003C200CBEFCB9008BCE030E7F9781812278E907B
:1003D20008BBEFF0781012278E9008BAEFF0AF62E8
:1003E200AE61AD60AC5F780812079D9008B9EFF07E
:0C03F2009008B8E562F09008BCEBF02227
:10359300CBEFCB9008BCE030E7F97818122799906D
:1035A30008B8EFF07810122799A3EFF0AF53AE529B
:1035B300AD51AC50780812079DA3EFF0A3E553F08B
:0435C300A3EBF02264
:1037ED008F7D9008BCE030E7F978B87C087D017ECC
:0D37FD00007F041204D39008BCE57DF0228B
:063527008B4F8A50895110
:10352D00E4FFEFC39556E5556480F8748098501FFD
:10353D00AB52AA53A9548F82758300120512AB4F5B
:0F354D00AA50A9518F827583001205730F80D386
:01355C00224C
:022EAC008F6D28
:102EAE00E4FB9034861207C3C374039B75F008A429
:102EBE00F9F812079D746E2BF8C6EFC60BBB04E231
:102ECE00E56D701253707F537180437140FB122E6B
:102EDE00FD4420F080114370805371804371407B1C
:0E2EEE0000122EFD54DFF09008B5E4F004F061
:0F2EFC00227A00796E7F021237ED9008E3E02210
:103981009008B67480F074A01227BB4401122786F8
:013991002213
:0E39F3001227D174801227BB54FE12278622A1
:0D001E009008B5E4F0900885EF12278622C7
:093A35001227D854D7122785226C
:093A3E001227D854F91227852241
:0F39D5009008B5E4F0900884E054F012278522A2
:1039460078871227C612277178951227C612277113
:043956001227E22230
:073A56001227521227E222A1
:0C3A1D00900121EFF01227521227E22244
:1034B500802FEF54716031EF30E4091227D1900865
:1034C500C07410F0EF30E60C9008B67480F09008E8
:1034D500C07440F0EF30E5069008C07420F0122764
:0834E500D19008C0E0FF80CA8D
:0134ED0022BC
:102B0200CAEBCAEF541FFF9008E1E054E04FF0ED2A
:102B12005403C43354E0FFE0549F4FF0302F0B7541
:102B220062497561DC7560ED80097562497561DC29
:102B32007560EC755FB47F041203C2EA54037E0031
:102B42007816C333CE33CED8F9FFEE3395E0FDFCD1
:102B5200EF44C0FFEE4486FEED4424FDEC44198FA1
:0C2B6200628E618D60F55F7F030203C28C
:1036A60090090074A5F07449F0ED900902F0ECA3BE
:1036B600F02290090574A5F0A374C3F022EB25E06F
:0736C6004441900901F022CC
:10377500CAEFCAEA70031236B81236A6A3EBF0EA0E
:1037850025E04481900901F0900901E020E7F92244
:1036CD00CBEFCB1236A61236C3900901E020E6F9F6
:1036DD001236A61236C3900901E020E6F9900904CE
:0336ED00E0FF22D9
:1036F000CBEFCBEB70031236B89009017401F012D6
:1037000036A6EB25E04421900901F0900901E02064
:03371000E5F922B6
:073A5D00E4FDFCFF0236CD81
:05005E0020322020000B
:042104000212000AB9
:10299B009008B674A0F07480F0900880E054FDF0BD
:1029AB00E04402F09008C07470F022FFE4F0A3EF53
:1029BB00F0E07F00FE22FDEDFFEEF0A3EFF09000C4
:1029CB0070E0227B007E007C087D017A00794E7FCF
:1029DB00050204D3F0A3EFF0900071E0FDEDFF22B0
:1029EB00E0FFEB4FFFEAFEE9FDE8FC9000C80207B1
:1029FB00D3F0A3EFF090006FE0229000C8E0F8A3B3
:102A0B00E0F9A3E0FAA3E0FB229008B674A0F02251
:03005B00023A471F
:083A4700C0E053C0F7D0E032EB
:102CAE0030030AC203E51A25E025E0F51A300903C0
:102CBE00431A01900051E07003431A029008B7E5E1
:102CCE0077F0900114E0FF9008B7F0900115E0FE48
:102CDE009008B7F0900116E0FD9008B7F09001173C
:102CEE00E0FC9008B7F0E51AF0EE7009ED7006EF13
:102CFE007003EC6004D22C8002C22CE4900114F01C
:072D0E00A3F0A3F0A3F022E3
:082D7C008B728A7389748D7556
:102D840012299B7F327E0012396E9008B67460F06F
:102D9400E4FFEFC395755015AB72AA73A9748F82C3
:102DA4007583001205129008B7F00F80E59008B6FD
:102DB400E4F043E80843860153E8F79008C0E0FFD5
:102DC400547060F7EF30E5037F2022EF30E4037F97
:0D2DD40010227BFF7A00795E1200C87F108C
:012DE10022CF
:10256B009008B5E4F002260DE57E54717003022647
:10257B0016E57E30E6343013159008B67440F00043
:10258B0000A3E09000D3F09008B6E4F0D2009008DE
:10259B00B67480F09008C074401229A37FC87E00E7
:1025AB0012396E1239F3E4787FF6E57E30E535208B
:1025BB0013251229AF122A149008B5E4F0787FF690
:1025CB00900880E054FDF0E04402F07FC87E0012DA
:1025DB00396E123981D213122A149008C07420F06C
:1025EB00E4787FF6E57E30E41912299B7F0A7E00A2
:1025FB0012396E9008C07410F0E54BC3946450020E
:0B260B00054B9008C0E0F57E0225732F
:0126160022A1
:10362700900880E054FDF0E4F54E754F01755002A7
:103637007551037552647887FBFE1229D2788C1274
:0E36470029CE78951229CE900880E04402F03A
:013655002252
:1026B90012299B7F327E0012396E9008847413F0C0
:1026C9009008B67460F07F0A7E0012396E122CAE43
:1026D9009008B6E4F09008C0E0F54E547060F6E555
:1026E9004E30E54A122A1474801229AE1239817FBC
:1026F9000A7E0012396E754F64AF4F154FEF601F98
:102709007F147E0012396E9008C0E0F54E30E6085D
:10271900E4900107F012139C9008C0E4F080DA12EB
:102729002A147480F01239F39008C07420F0E54E31
:1027390030E415754B019008C07410F030140990FD
:082749000107E004F01239E47D
:012751002265
:10139C009008C4E090006AF09008B67440F0E490B5
:1013AC00006BF090006AE0FFA3E0FEC39F50199021
:1013BC0008B7E0FD746C2EF582E43400F583EDF093
:1013CC0090006BE004F080DB9008B6E4F0EFB40220
:1013DC000E90006CE0B45607A3E0B47802D20C90E7
:1013EC00006AE0B4031890006CE0B41211A3E0B4EE
:1013FC00340CA3E0B48807200204D202D208900077
:10140C006AE0640470579000C81207DF0000000007
:10141C00D20D90012B1207DF00000000E490006B4E
:10142C00F0122A0590006BE0246CF582E43400F590
:10143C00831229EB9000C8E0FCA3E0FDA3E0FEA31F
:10144C00E0FF78081207B01229F690006BE004F068
:10145C00E0B403CD122A0590006F1229EB90006ABC
:10146C00E06406600302154D90006CE0700BC280C6
:10147C00C281C2B0C2B3C20722D204D20790006D9F
:10148C00E014603814605F14700302151E240360AE
:10149C000302154D90006EE09000B91229B6900031
:1014AC00B91229FC9000B91229C19000D01229B6AA
:1014BC009000D01229DF9000D002154890006EE009
:1014CC00FF9000E01229B79000E01229FC9000E098
:1014DC001229C1FF9000CE1229B79000CE1229DF3D
:1014EC009000CE02154890006EE0FF9000DE1229AD
:1014FC00B79000DE1229FCFDEDFF9000DE1229C42E
:10150C00FF9000CC1229B79000CC1229DF9000CCB0
:10151C00802A90006EE0FF9000D51229B79000D57C
:10152C001229FCFDEDFF9000D51229C4FF9000C6D6
:10153C001229B79000C61229DF9000C6EEF0A3EF77
:01154C00F0AE
:01154D00227B
:1030CA00626B323533352074782E2E2E0D0A006944
:1030DA006E69742072660D0A00696E6974206F6BDE
:1030EA000D0A005365742052462073696E6765772E
:1030FA006176650D0A00646F20706F7765722064CF
:10310A006F776E0D0A0073797374656D20696E6945
:07311A0074206F6B0D0A0029
:032108000148018A
:10390500054DE54DC39404229008B57401F022E0FD
:06391500FB7C00E4FF2230
:10228800D3E57994CCE57894024018E54A6005E4F2
:10229800F54AF54D1239055003022351754D04E4F2
:1022A800F54722D3E5799490E5789402401BE54AF6
:1022B80064016006754A01E4F54D123905500302C0
:1022C8002351754D0475470122D3E579945CE5786F
:1022D80094024018E54A64026006754A02E4F54D26
:1022E8001239054064754D0475470222D3E5799487
:1022F80039E57894024018E54A64036006754A0394
:10230800E4F54D1239054041754D0475470322D354
:10231800E5799428E57894024018E54A6404600653
:10232800754A04E4F54D123905401E754D0475478C
:102338000422E54A64056006754A05E4F54D12393C
:0A234800054006754D047547052297
:10382700EF30E006C2B7C2B68004D2B7D2B6EF30E7
:0C383700E105C2B6C2B722D2B6D2B72259
:10317600E547C39404501F90011DE06007E57730D2
:10318600E523800E7882E6600916E630E4028015B3
:1031960080007F01802790011DE0600DE57730E516
:1031A600047F028018E4FF80147882E6600D16E63C
:1031B60030E404E4FF80067F0280027F0212382793
:0131C60022E6
:1033FA00E490011DF0D217C21AC21BC21EC2189055
:10340A000108F0A3F090011EF0A3F090010AF090D9
:10341A00010CF090011CF0F576FE7F0DFD7B017A20
:10342A0001790D12081CE490011AF090010BF022A8
:030FFC00D21F22DF
:102A9500120003123073C2AF1238787BFF7A307997
:102AA500CA1200C81233FA12355DE4900121F0A371
:102AB50004F0A304F0A304F0A37464F0121B9A7B42
:102AC500FF7A3079D91200C8121A809008B5E4F05F
:102AD500900880E04402F01234B5123A569008840A
:102AE5007410F09008867427F01239F312390DD25C
:0D2AF500177BFF7A3079E31200C8D2AF22C0
:1035F7007BFF7A3079ED1200C89008B5E4F01239F4
:10360700F39008B5E4F0900885742CF012390DE4B6
:10361700FF122EAC12390D7FF47E0112371380F79B
:10002E00E4FDFCFF1236F09001227D1112391412FC
:10003E0037759001237D12123914123775900124F1
:0B004E00E0FB7D137C00E4FF0237752F
:10355D007D1112358B900122EFF07D1212358B907B
:10356D000123EFF07D137C00E4FF1236CD90012492
:10357D00EFF0E4900121F09001257464F0227C00BD
:06358D00E4FF1236CD221E
:10380A00C2AF7BFF7A3179001200C8900880E05479
:0D381A00FDF09008B5E4F0FF12382780FEA5
:102BDA00120FFC122A95C21FC220C2211221BD7FE8
:102BEA0001120F8D7BFF7A3179101200C8900051C3
:102BFA007401F0122C36122C367F06900063E4F032
:102C0A00A3DFFC7F03C20ED2A9E54614600F14604D
:102C1A001614600E240370F1122A1B80EC121C9405
:0C2C2A0080E712261780E212000080DD17
:0F2C36007F207E4E12396E7F207E4E12396E2225
:102A1B00E5467075900132E0C394C84009E4F0D2EA
:102A2B00B21238D7C2B29000C1E0C3940840E1E4BF
:102A3B00F0200F06900132E004F0301305C21312A0
:102A4B0039F3200F14120DB412343A1219611239E2
:102A5B000D1226B99008B5E4F0E4F548E548600698
:102A6B00E4F548123627E54BC3940140A3E4F54B3C
:102A7B00AF4C054C741C2FF8E6FF12001EE54CD32F
:0A2A8B009403408CE4F54C80872290
:1011D100253562780D0A002900000000000000009A
:1011E10000000000000000000000000000000000FE
:1011F10000000000000000000000000000000000EE
:1012010000000000000000000000000000000000DD
:1012110000000000000000000000000000000000CD
:1012210000000000000000000000000000000000BD
:1012310000000000000000000000000000000000AD
:10124100000000000000000000000000000000009D
:10125100000000000000000000000000000000028B
:10126100230000000000000000000000000000005A
:10127100000000000000000000000000000000006D
:10128100000000000000000000000000000000005D
:10129100000000000000000000000000000000004D
:1012A100000000000000000000000000000000003D
:1012B100000000000000000000000000000000002D
:1012C100000000000000000000000000000000001D
:1012D100000000000000000000000000000000000D
:1012E10000000000000000000000000000000000FD
:1012F10000000000000000000000000000000000ED
:1013010000000000000000000000000000000000DC
:1013110000000000000000000000000000000000CC
:1013210000000000000000000000000000000000BC
:10133100000000000000000000000000000000208C
:10134100001FFB1FEC1FD31FB11F831F4D1F0D1E5D
:10135100C31E6F1E121DAC1D3B1CC31C411BB61BC3
:10136100231A8719E31937188317C71705163B1571
:1013710069149213B412CF11E510F510000F6A0E23
:10138100070D040BFD0AF209E308D207BE06A70503
:0B1391008E04740358023C011E000093
:10210B004100510041005200410062004100690052
:10211B004600000000000000004100450A41004657
:01212B00FFB4
:10096200F8EB2FFFEA3EFEE93DFDE83CFC900090EB
:100972001207D3900090E0F8A3E0F9A3E0FAA3E015
:1009820022FB1207199000981207D3900098E0FCFE
:10099200A3E0A3FDE0FEA3E0FF22AB54AA55A956B3
:1009A20012065DFFAEF0EE3395E0FDFC229000985A
:1009B200A3A3E0FEA3E0FBCAEECA900094A3A3E0C7
:1009C200FEA3E02BFFEE3AAB54AA55A95622FEE055
:1009D2002400FFEC3EFE900085F0A3EFF02274535A
:1009E200254EF582E43400F583E022E0FF90008595
:1009F200E4F0A3EFF0E022AB4EAA4FA95075F0024B
:100A0200A4F58285F08322F583ECF0A3EDF090004B
:100A120089E0FF25E022FFE5F0F0A3EFF02290004D
:100A22009C2FFFEA3EFEE93DFDE83CFC0207D3F5C0
:100A320083E0FCA3E0FDEF25E02212076890009C12
:100A42001207D3E4FF7E3FFDFC90009C22E4FB7A78
:100A520010F9F81232AE9000940207D3120632FF58
:100A6200AEF02212065DFDEF25E02400F582E434AB
:100A720000F583E0FEA3E0227E007D007B010208F8
:100A82001CE4FB7A10F9F81232AE9000980207D3F8
:100A92005394E7539FE722E0FEA3E0A3FFE0FCA309
:100AA200E0FD22C3E49FFFE49E8FF00206CD8FF0AB
:100AB2001206CDAB4EAA4FA95022E4120561AB58E3
:100AC200AA59A95A2225E02440F582E43413F58379
:100AD200E493FF7401932290000412065DFF2290BA
:100AE2000089E0FFC3E5516480F8EF6480982275C5
:100AF200F002A4247FF9740035F0FA7B0122900001
:100B02008EEEF0A3EFF022E0FEA3E0FF7D000205EF
:100B1200FCFF90008FE02FF090008EE03EF022ABC1
:100B22004EAA4FA95022AB54AA55A956229000A012
:100B32000207D39000A40207D3120632FFC3E49F38
:100B4200FFE422AB54AA55A95622439418439F1896
:100B520022EEF0A3EFF07B0122C3E49557F557E4B0
:100B62009556F55622EEF0FCA3EFF0FD227E007DB5
:100B7200007B0102081C900089E004F02290000230
:100B820002065D25E02463F582E4340022CEA2E76A
:100B920013CE132212063225E0FFE5F03322AB5BBF
:050BA200AA5CA95D2220
:103121007F0F7A007953120A7A900053E0FF3080C2
:10313100047E0080027E01EF4E900053F0A3E0FF79
:103141003081047E0080027E01EF4E900054F090A9
:103151000061E0FF3091047E0080027E10EF4E900E
:103161000061F0E0FF3083047E0080027E80EF4E3C
:05317100900061F02256
:10399200E4FFFE74532E1209E4CF4FCF0EBE0FF395
:0139A2002202
:1039A3007F0A7E00123713123121123992EF70F021
:0139B30022F1
:10343A007F047A017914120A7A900061E0FD30E47F
:10344A0007900114E04401F0ED30E507900114E023
:10345A004402F0900061E030E607900114E0440174
:0F346A00F0900061E030E7069001167405F02243
:100DB4007F077A01790D120B6F7F027A017918127D
:100DC4000B6F7880E6FF08E67883CFF608EFF6E449
:100DD4007880F608F6123121C21CE4F54E1209E0BF
:100DE400FF1239C5EFD394014074E54E04F54FE585
:100DF4004FC3940E50687453254F1209E4FF1239FF
:100E0400C5EFD3940140527453254F1209E4FF12E5
:100E140039C57E00EEC0E0EFC0E01209E0FF1239F0
:100E2400C5EFFDD0E02DFFD0E03400FEEEC0E0EFD2
:100E3400C0E07453254F1209E4FF1209E04FFF127A
:100E440039C5EFFDD0E0FFD0E0FEC3ED9FEE648036
:100E5400F87480985003D21C22054F020DF3054EFE
:0F0E6400E54EC3940E5003020DE17D01E4F54EFF
:100E73001209E0F5506075E4F54FE55030E05FE5A9
:100E83004EC454F02450F582E43412F58375F00215
:100E9300E54F120810E493FA740193FBEA540FFF31
:100EA300900118E054F04FF0EBA3F0E54E75F00815
:100EB300A424D8F582E43411F583E582254FF58225
:100EC300E43583F583E493FFCEEDCE0D740D2EF55B
:100ED30082E43401F583EFF0EDD394065019E55025
:0C0EE300C313F550054FE54F6408708EF6
:100EEF00054EE54E640F6003020E73900061E0FD46
:100EFF0030E007900118E04410F0ED30E107900169
:100F0F0018E04420F0900061E030E207900118E013
:100F1F004440F0900060E0FD30E00790010DE044A8
:100F2F0001F0ED30E10790010DE04402F090006018
:100F3F00E030E20790010DE04404F0900060E0FD26
:100F4F0030E30790010DE04408F0ED30E407900125
:100F5F000DE04410F0900060E030E50790010DE0E7
:100F6F004420F0900060E0FD30E60790010DE04472
:0D0F7F0040F0ED30E70790010DE04480F0F8
:010F8C002242
:102FC3007B007A00794EE4FD7F01122352E54E64C3
:102FD300D160037F00227D297F401231C77D057FA9
:102FE300411231C77D297F421231C7E4FD7F43126D
:102FF30031C77D117F7E1231C77D157F7E1231C7A8
:103003007B007A00794E7D037F01122352E54EB493
:0730130014037F01227F007E
:01301A002293
:0E3A01007D107F7E1231C77D147F7E0231C79B
:10196100900051E06010122FC3EF64016003021A6E
:101971007F900051F0227B017A00796B7D0C7F0C06
:1019810012235290006C1209EDFE90006BE07C0076
:101991001209D290007FEEF0A3EFF090006E1209D1
:1019A100ED90006D1209D0900081EEF0A3EFF09060
:1019B10000701209ED90006F1209D0900083EEF0D3
:1019C100A3EFF09000721209EDFE9000711209D19F
:1019D100900079EEF0A3EFF09000741209EDFE9003
:1019E10000731209D190007BEEF0A3EFF090007626
:1019F1001209EDFE9000751209D190007D120B5372
:101A01007A00797F1216C975510175520075537F9D
:101A11007B017A007979121003E490006AF090005A
:101A21006AE0FFC39402501EEF120AF1122F0B90CD
:101A3100006AE0120AF1900062E0FD12202190009C
:101A41006AE004F080D87B017A00797F1224099042
:101A5100007FA3E0900087F0900081A3E0900088D0
:101A6100F0900087E07004A3E06013900088E0F438
:0E1A710004F0900115F0900087E0900116F04F
:011A7F002244
:0616C9008B4E8A4F895090
:1016CF00E4900089F0900089E0FFC3940350591211
:1016DF000B2175F002EF120A02120A65FFC3ED9F8C
:1016EF00FFE5F09EFE90008AF0A3EFF0120B781248
:1016FF003A2990008AEEF0A3EFF0D3941AEE6480AB
:10170F00948040C1E4900006F0120B211206329033
:10171F000000120A18120B7FFF900002120A191212
:10172F000AD9900004120A19900006E004F0E0D3E1
:10173F0094804044E4F0900089F0120B21900089CE
:10174F00E0FF1209FF120A652DFFEE35F0A2E71335
:10175F00FEEF13FF900089E0FD120B85F583EEF08D
:10176F00A3EFF075F002ED120A02E4F5F01206ECA9
:10177F00120B78E0B403C322E4900089F090008943
:10178F00E0FFC39403400302181EE0FE1209F91292
:10179F00065DFD90008AE5F0F0A3EDF075F002EE26
:1017AF00A429F9EA35F0FA120632FDEF120B851271
:1017BF000A73FFC3ED9FFFE5F0120AAA900089E0BC
:1017CF001209F912065D90008A120995EE65F0FC78
:1017DF00EF6DEC30E733123A29D3EF9400EE6480CB
:1017EF009484402590008AE0A3120B219000893049
:1017FF00E70BE01209FF748075F0008009E0120911
:0F180F00FF747F75F0FF1206EC120B7802178C36
:01181E0022A7
:10100300E4900089F0120A10240BF582E4340012F4
:101013000A312409F582E43400120A092417F582FF
:10102300E43400120A312415F582E43400120A096B
:101033002423F582E43400120A312421F582E434B6
:1010430000120A09242FF582E43400120A31242DF8
:10105300F582E43400120A09243BF582E4340012D9
:101063000A312439F582E43400F583ECF0A3EDF082
:10107300900089E004F0E06405708A120632900063
:1010830013120A18120AD990001F120A19AB51AA97
:1010930052A953120632FF90002B120A19120B7F2A
:1010A300FF900037120A19120AD9900043120A1945
:1010B3007B017A007909121D8C900011120A997B29
:1010C3001E12301B900013120B537A007915121D58
:1010D3008C90001D120A997B1E12301B90001F1268
:1010E3000B537A007921121D8C7B017A00792D1222
:1010F3001D8C7B017A007939121D8C900037E0FE3C
:10110300A3E0900007120A9E12395A90008AEEF06B
:10111300A3EFF090002B1211C5120B8FD8FBFF1217
:101123000B009000371211C5120B8FD8FB120B1353
:10113300900043E0FEA3E0FF123A29EF7805120B7B
:101143008FD8FB120B13E06008E4F0A374FFF08068
:101153000590008EE4F090008EE0FCA3E0FDFFCE4E
:10116300ECCE120595120B00122C45900089EFF07E
:10117300900013E0FEA3E0FF90001FE0FCA3E0FD5E
:1011830090008AE0FAA3E0FB12154EEF3395E0904E
:10119300008CF0A3EFF0E07F00FE90008C120B6850
:1011A300CCEECC90008AE0FEA3E0FF900089E0FB48
:1011B30012301B900007120B67AB51AA52A95302BE
:0211C3000BA778
:0C11C500E0FEA3E0FF123A29EF780522BB
:061D8C008B548A558956B4
:101D9200120A5EEE3395E0FD12096EFBE8C0E0E93F
:101DA200C0E0EAC0E0EBC0E090000212099CD0E083
:101DB200FBD0E0FAD0E0F9D0E0120962FBE8C0E023
:101DC200E9C0E0EAC0E0EBC0E090000412099CD058
:101DD200E0FBD0E0FAD0E0F9D0E0120962FBE8C003
:101DE200E0E9C0E0EAC0E0EBC0E0120B2890000698
:101DF2001209A2D0E0FBD0E0FAD0E0F9D0E012095B
:101E020062FBE8C0E0E9C0E0EAC0E0EBC0E0120B30
:101E1200289000081209A2D0E0FBD0E0FAD0E0F945
:101E2200D0E0120962FBE8C0E0E9C0E0EAC0E0EB02
:101E3200C0E0120B2890000A1209A2D0E0FBD0E009
:101E4200FAD0E0F9D0E0F8EB900090120A2390006B
:101E520090120990E47B06FAF9F81232AE900090E3
:101E62001207D3900090A3A3E0FFA3E0120B2890E7
:081E7200000ACF8FF00206EC1C
:08301B008E548F558C568D5721
:10302300C3E5579555F557E5569554F55630E70BD7
:10303300120B5B9000907401F08005E4900090F017
:10304300EBFD7C007E017F001205A7AC56AD57CF88
:10305300CDCFCECCCE1205A78E568F57900090E0E1
:0F3063006003120B5BE5552557FFE5543556FE0C
:01307200223B
:10395A00CBEDCBCAECCA7C007D0B1205FCEB2FFF2A
:04396A00EA3EFE2211
:102C4500900045E02405F0E02FFFE43EFE123A0F28
:102C5500900045E0FD8FF084FF900090F0C3E49F65
:102C6500FF74019400FE7C00120595123A0F900046
:102C750045EFF0A3E0FF900090E0FED39F90004663
:102C8500400BE0240CF0E0900090F08002EEF09014
:102C95000090E0C3942850057402F08006900090DF
:082CA5007428F0900090E0FF9C
:012CAD002204
:0D3A0F008E588F59E55930E7020558AF5821
:013A1C002287
:08154E008E548F558C568D5709
:10155600900096EAF0A3EBF07B017A0079961224CC
:10156600BE900093EFF0C3900099E094A19000988C
:10157600E0648094965007E4900092F08006900014
:10158600927401F0E4900090F0A3F0E55630E70E77
:101596007401F0C3E49557F557E49556F556E554AE
:1015A60030E730C3E49555F555E49554F554C364D6
:1015B6008094A050089000907401F08034C3E554E4
:1015C600648094C0502B9000907401F0A3E0F4F076
:1015D600C38013D3E5559400E554648094A040116C
:1015E600900091E0F4F0E49555F55574409554F566
:1015F60054900092E090009A7009E554F0A3E555E6
:10160600F08007E556F0A3E557F0E4900093F090DC
:101616000093E0FFC3648094AE5032EF3395E0FE52
:10162600EF25E0FFEE33FE74402FF58274133EF58E
:1016360083E493FE740193FFC390009BE09F9000A8
:101646009AE09E5008900093E004F080C2900092C9
:10165600E06008A3E0FFC3742D9FF0900093E0FFC5
:101666003395E0FEEF7806C333CE33CED8F9FF903C
:10167600009AEEF0A3EFF07C007D2D1205FC9000A1
:1016860093EFF0900090E0600A900093E0FFC3743F
:10169600809FF0900093E0FE3395E0A3F0A3CEF098
:1016A600900091E06012900094E0FEA3E0120B3EE1
:1016B6009E900094F0A3EFF0900094A3E0FF9000BA
:0216C60093F09F
:0116C80022FF
:1024BE00E49000A9F0120A5EEE30E72A120AA51285
:1024CE000A5ED39400EE648094C04011E49FFF74C2
:1024DE0080120AAA9000A9E04404F0802E9000A970
:1024EE00E04408F08025120A5ED39400EE648094D6
:1024FE00C04011E49FFF7480120AAA9000A9E04424
:10250E0002F080079000A9E04401F0120A5E123A30
:10251E000FEF75F02DA4FF9000AA120A199000AAD1
:10252E00E0FEA3E07806CEC313CE13D8F9FF9000D9
:10253E00AAEEF0A3EFF09000A8F0C3742D9F120A3C
:10254E00C7CF8FF01206CD9000A8E0120AC79000F8
:0C255E0002CF8FF01206EC9000A9E0FF05
:01256A00224E
:03321800CBEFCB2E
:10321B00EEF5C2EBF5C1ECF5C6EDF5C575C7401281
:10322B003259123259AFC4EFFEADC3EDFFEFC4F804
:10323B00540FC868FFEEC454F048FEE5C2C4540FE7
:0D324B00CF4FCFE5C230E3050FBF00010EED
:0E325800227BFF7A1179D185C7591200C82256
:060BA7008B548A558956AB
:100BAD00E4F557900090ECF0A3EDF07B017A00791D
:100BBD00901224BE123931CF54F0CF635708EFEFA6
:100BCD0030E503635706EF30E60363570FEF30E769
:100BDD00036357091209C9120AD9AEF0EE30E711B5
:100BED00635705C3E49FFFE49E9000048FF0120647
:100BFD00EC1209C9120A5EEE30E70663570A120AB3
:100C0D00A5900090E0FEA3E0FF1209A8120B2F1291
:100C1D0009C99000041209A2120B359000A4120903
:100C2D00909000A0120978FB120719120A58900033
:100C3D0094120990120A4FE55730E00C900094126F
:100C4D000990120768120A58900092E0FEA3E0FF87
:100C5D001209A8120B2F1209C91206321209A51278
:100C6D000B359000A41209909000A012097812097A
:100C7D0083120A83E55730E10912098D12076812B4
:100C8D000A8C12098D900094120978120A20900096
:100C9D009CE0FCEC5480601D90009C120990120A9F
:100CAD003C120978FBD312077640241209C9900033
:100CBD000274C18015120A45120978FBD31207760A
:100CCD00400D1209C9900002743F75F000800812A2
:100CDD0009AF9000028FF01206EC900092E0FEA397
:100CED00E0FF1209A8120B2F1209C9900004120976
:100CFD00A2120B359000A0120990A3120978FB12D5
:100D0D000719120A58900094120990120A4FE557CC
:100D1D0030E20C900094120990120768120A589054
:100D2D000090E0FEA3E0FF1209A8120B2F1209C9D3
:100D3D001206321209A5120B359000A0120990A3CC
:100D4D00120978120983120A83E55730E309120953
:100D5D008D120768120A8C12098D90009412097871
:100D6D00120A2090009CE0FCEC5480601A90009CCC
:100D7D00120990120A3C120978FBD3120776401E15
:100D8D001209C974C18012120A45120978FBD312D7
:100D9D000776400A1209C9743F75F00080051209E3
:060DAD00AF8FF01206CD2D
:010DB300221D
:103931009000A8EFF0E0C454F0F0EFC4540FFFE0A2
:043941002FF0E0FF84
:01394500225F
:062F0B008B4E8A4F895035
:102F1100120A5E123A29900089EEF0A3EFF0D394E1
:102F210010EE64809480400DE024F0F0900089E080
:102F310034FFF08007E4900089F0A3F0AB4EAA4F74
:102F4100A950120632E5F090008930E711E0FEA3A6
:102F5100E0F4FFEEF4FEEF2401FFE43E8005E0FF24
:082F6100A3E0CF8FF01206CDB2
:012F69002245
:082021008D518B4E8A4F89504E
:10202900120632FDACF0ECA2E713FFED1390008A23
:10203900CFF0A3EFF0EC30E715120B3B95F0120A45
:10204900B0120B96120AB0120B3B95F08006120AD9
:10205900B5120B968FF01206CDD3E55164809480AA
:10206900402DD3E551648094854003755105E49072
:102079000089F0120AE1506EA3E0FEA3E0FF120A04
:10208900B5EE8FF0120695900089E004F080E4E542
:102099005130E752F404F551D364809484400375B8
:1020A9005104E4900089F0120AE1503AEF648094F7
:1020B90081120AB54010120632FFE5F0A2E713FEBD
:1020C900EF13FFEE8013120632FF90008AE0FCA3A3
:1020D900E0FDC3EF9DFFE5F09C8FF01206CD900067
:0620E90089E004F080C153
:0120EF0022CE
:062409008B4E8A4F895042
:10240F0012063245F07007120B7F45F0606275546B
:10241F000175550075564790004FE0F557755801F7
:10242F00755900755A4B755B01755C00755D4DAB49
:10243F004EAA4FA950121F5090004FEFF0AB4EE530
:10244F00502402F9E4354FFA75540175550075564D
:10245F0049A3E0F557755801755900755A4C755BCE
:10246F0001755C00755D4E121F50900050EFF02209
:10247F00E4900089F0900089E0FF25E02447F58281
:10248F00E43400F583E4F0A3F0744D2FF582E434C7
:10249F0000F583E4F0744B2FF582E43400F5837478
:0E24AF0050F0900089E004F0E0C3940240C7B2
:0124BD0022FC
:061F50008B518A528953F7
:101F5600120632FDACF04C7017120BA0120ABD74BB
:101F660050120561120B45E4F5F01206CD7F0122F1
:101F7600120B45120632FFC3ED9FFFEC95F0FE9063
:101F8600008BF0A3EFF090008A7401F0EE30E702C8
:101F9600E4F090008AE06557702EA37C04120B09CA
:101FA600120BA0EF12053F740112053F1204F9D37C
:101FB6009408401F120ABC740812053F1204F9D394
:101FC60094B4400F74B48008120BA0120ABC74506B
:101FD60012056190008B7C01120B0990008B120B8D
:101FE60067120AC01204F9FF7E00120595120B450E
:101FF600EE8FF0120695120B45120A5E7C017D00EB
:102006001205FCAB51AA52A953EE8FF01206CD90E1
:0A201600008AE060037F01227F00D2
:01202000229D
:1031C7008F4F8D50120B4C30A40320A302D3221231
:1031D7000A92C2A47FD0122F6A4002D322AF4F12A5
:1031E7002F6A4002D322AF50122F6A4002D3221215
:1031F7000A92C2A3123210C2A4123210D2A37F02C3
:103207007E0012396ED2A4C3227F027E0012396E6D
:013217002294
:022F6A008F5581
:102F6C00755608120A92122FB9E55530E704D2A40F
:102F7C008002C2A4D2A3439408439F0830A3FD53FC
:102F8C0094F7539FF7E55525E0F555D556D8122FF4
:102F9C00B9D2A47F027E0012396ED2A3120B4C7FE1
:0C2FAC00017E0012396E30A402C322D353
:0B2FB80022C2A37F027E0012396E22AD
:0A2352008F4F8D508B518A52895332
:10235C00E4F554120B4C30A40320A302D322120A2E
:10236C0092C2A47FD0122F6A4002D322AF50122FF8
:10237C006A4002D3221223E7D2A47F027E001239D4
:10238C006E120B4C30A40320A302D322120A92C269
:10239C00A47FD1122F6A4002D322E4F554E554C332
:1023AC00954F5030123335AB51AA52A953855482F4
:1023BC00758300EF120573E54F1465547007D2A4B2
:1023CC007F02FE8006C2A47F027E0012396ED2A369
:0A23DC00055480C91223E7D2A4C300
:1023E600225394E7539FE7C2A37F027E0012396E01
:1023F600C2A47F027E0012396ED2A37F027E001233
:03240600396E220A
:10333500120A92C2A37F017E0012396ED2A4439471
:1033450010439F107F08E55525E0F555D2A343941A
:1033550008439F0830A3FD5394F7539FF730A40506
:1033650043550180035355FEC2A3DFDA120A92AF1B
:013375005502
:013376002234
:10391B00000000000000000000000000000000009C
:06392B0000000000000096
:10212C00C181C102C108C11601190001140042008D
:10213C00C40000021600000115004100E30042003B
:10214C00D000004200B900004200CC00004200DE8A
:10215C0000004200CE00004200E000004200C60039
:10216C00004200D500004200C200004200B700004F
:10217C004200BC00004200DC00004400C80000002B
:0B218C0000C10BC10DC104C107C1055B
:102DE200EFF09000C8E0FCA3E0FDA3E0FEA3E0FF4B
:102DF20022E0FFEB4FFFEAFEE9FDE8FC9000C8028B
:102E020007D3FFE0FCA3E0FDC39FEC9E222FFFE06F
:102E12003EFEC3ED9FEC9E227D017BFF7E007F0A7A
:102E22000204D39000C8E0F8A3E0F9A3E0FAA3E01B
:102E3200FB22C39000C3E09F9000C2E09E22F0906C
:062E4200006AE004F0222A
:10367E0020911A2016020515E515D394034018E47F
:10368E00F515D2B39000D5F0A3F0D2162230160461
:08369E00C2B3C216E4F51522C7
:102D15003090212009370518E518D39414402EE486
:102D2500F518D2099000BBF0C20FC2B0C211C2B3F0
:102D3500C2028019300905E4F518C281C209C2151D
:102D4500C20AE49000D7F0A3F0F516F5173009266E
:102D550030A7239000C5E004F070069000C4E0049D
:102D6500F0D39000C5E094D09000C4E094074006ED
:072D7500E4F0A3F0D21522E7
:1038D700C220C2211221BD7F01120F8D9000BEE0D0
:0738E700FEA3E0FF022B6EBF
:102B6E00200968C3EF94ABEE940140089000D27434
:102B7E0005F0804FC3EF9498EE940140089000D278
:102B8E007404F0803EC3EF948DEE940140089000E3
:102B9E00D27403F0802DC3EF9482EE94014008901E
:102BAE0000D27402F0801CC3EF9479EE94014008B9
:102BBE009000D27401F0800BC3EF9479EE94015023
:0C2BCE0002D20F9000D2E0F51AD20322D0
:1039B4009008B5E4F0900880E054FDF0C28CC2A9F0
:0139C40022E0
:1032660020152630091F0514E514D394145004D2F2
:10327600818009E514D394645002C281E514D39485
:103286006440248000E4F514220517E51770020552
:1032960016D39470E51694175003D28122E4F516DE
:0832A600F517C28175460322F1
:1033B900300F3D9000DBE004F070069000DAE00485
:1033C900F09000DAE0FEA3E0FFC39428EE940050E9
:1033D90004D2B0800BC3EF94B8EE94015002C2B08E
:1033E900D3EF94B8EE94014007E49000DAF0A3F02B
:0133F90022B1
:10181F002004030219609000B9E0FEA3E0FF4E60C0
:10182F00109000C3E004F0700A9000C2E004F08052
:10183F0002C2B09000DEE07002A3E060109000B82A
:10184F00E004F0700A9000B7E004F08002C28090CC
:10185F0000E0E07002A3E060109000BDE004F070C3
:10186F000A9000BCE004F08002C28120161C900098
:10187F00D5E07002A3E060109000DDE004F0700A84
:10188F009000DCE004F08002C2B3122E345004D278
:10189F00B080249000D0E0FEA3E0FF9000BAE02FCC
:1018AF00FF9000B9E03EFE122E345004C2B0800704
:1018BF00E49000C2F0A3F09000DEE0FEA3E0900001
:1018CF00B7122E045004D280801F9000CCE0FEA3EC
:1018DF00E0FF9000DFE09000DE122E0F5004C28078
:1018EF008007E49000B7F0A3F09000E0E0FEA3E0E3
:1018FF009000BC122E045004D281801F9000CEE0C5
:10190F00FEA3E0FF9000E1E09000E0122E0F5004E4
:10191F00C2818007E49000BCF0A3F0201633900042
:10192F00D5E0FEA3E0FF9000DC122E055003D2B3EA
:10193F00229000C6E0FEA3E0FF9000D6E02FFF90BC
:10194F0000D5122E115003C2B322E49000DCF0A395
:02195F00F02274
:101E7A0078AD7C007A39791B122E1A200D09200CB4
:101E8A0006201203021F4FC20D9000C8A3A3A3E0AD
:101E9A009000AD122DE3780812079D9000AE122D26
:101EAA00E2781012079D9000AF122DE278181207FF
:101EBA009D9000B0EFF0301209C212D2147546019B
:101ECA008038200C03201432C20CC2149000B17462
:101EDA0033F0900121E09000B2F0900122E09000EE
:101EEA00B3F0900123E09000B4F0900124E0900058
:101EFA00B5F0900125E09000B6F0E4FDFCFF123643
:101F0A00F07B557D107C00E4FF1237757BAA7D11AA
:101F1A007C00E4FF1237759000AC7402F09000ACBC
:101F2A00E0FF2410FDE433FC74AB2FF582E43400A7
:101F3A00F583E0FBE4FF1237759000ACE004F0E0B3
:051F4A00C3940C40D817
:011F4F00226F
:101B9A00786B7C007A397925122E1A78757C007D4B
:101BAA00017BFF7A39792F7E007F021204D37D10E0
:101BBA007C00E4FF1236CD900075EFF07D117C00B9
:101BCA00E4FF1236CD900076EFF090006A7402F0CE
:101BDA0090006AE0FFC3940C501FEF2410FDE43319
:101BEA00FCE4FF1236CD90006AE02469F582E43401
:101BFA0000F583EF122E4080D7900075E06455708F
:101C0A0045A3E064AA703F90006AF0122E25900066
:101C1A006AE0FFC374039FFFE49400FE746B2FF520
:101C2A008274003EF583122DF3122DE47808120710
:101C3A00B0122DFE122E41E0B403D0122E259000D0
:101C4A006B122DF3800A9000C81207DF0002BF2032
:101C5A0090006FE0B4332DE490006AF090006AE0DF
:101C6A00FF2470F582E43400F583E0FE74212FF539
:101C7A0082E43401F583EE122E40E0B405DEE4F589
:091C8A0046C21422754601D21471
:011C9300222E
:063A6400200502D205223C
:10385E002093119000E3E004F0E0D39404400AE4D6
:0A386E00F0D21222E49000E3F022F1
:1037340030021D30081AC208B2B39000C81207DF65
:103744000002BF20D214E4FDFCFF1236F0754603DC
:013754002252
:10337700302E3EC22E200709300904C2048002D233
:1033870004200F0312181F123A640519E519C39494
:103397000A401EE4F519122D1512373412385E1241
:1033A700367E121E7A200406200F0312326612336D
:0233B700B92239
:1038EE005258305F41646472657373203D202564C5
:0738FE000A001122334455BA
:102197004100E600C12B4100E500C129C12A4101E8
:0221A70007002F
:103843007B007A00794E7C087D017E007F050204AF
:0B385300D39008B674A0F07480F0223F
:101C9400784E7C007D007BFF7A39790012384D1232
:101CA4003854900880E054FDF0E04402F09008C0FD
:101CB4007470F09008857441F078871238437895F1
:101CC400123843123981E54664016003021D8B908A
:101CD40008C0E0F55330E64A9008C4E0F554FF121A
:101CE40034EE1238549008C0E553F0E5546406709D
:101CF400319000ECE0B4CC2A9000E7E0900121F0B0
:101D04009000E8E0900122F09000E9E0900123F0D7
:101D14009000EAE0900124F09000EBE0900125F0BF
:101D2400D229302B17C22B9000E5E004F0E0C394D5
:101D34000A4009E4F0D2B21238D7C2B2302987C2BD
:101D44002978877B017A01792112384978957C08B2
:101D54007D017B017A01792112384DE4F5557BFF31
:101D64007A3879EE74212555F582E43401F583E05F
:101D7400F5591200C80555E555C3940540E01239DC
:071D8400F3E4F546021CCA5E
:011D8B002235
:0234EE008F56F7
:1034F0007E007F207D007B017A0079E712081C9016
:1035000008B67440F0E4FFEFC3955650149008B726
:10351000E0FE74E72FF582E43400F583EEF00F80CF
:06352000E69008B6E4F09D
:013526002282
:0F39E400900107E0D394504005E4F075460122AE
:1021A90041012F0041013000C12CC12D44012B00F8
:0321B90000000023
:103795009000C8E0F8A3E0F9A3E0FAA3E0FB2290CB
:0E37A500012BE0FCA3E0FDA3E0FEA3E0FF2269
:10261700C2B2C280C281C2B0C2B3E49000B9F0A313
:10262700F09000D0F0A3F09000DEF0A3F09000CC83
:10263700F0A3F09000E0F0A3F09000CEF0A3F090AC
:1026470000D5F0A3F09000C6F0A3F0C215C2049025
:10265700012B1207DF00000000C211C206123A0167
:10266700900880E054FDF0C2A9C28CE4F58575ECB2
:1026770003D2EC75EA01758603200203309103301B
:1026870090F4000000005386FDE4F5EAF5ECF5EE62
:10269700758501C2EC123878D2A99000517401F007
:1026A700900880E04402F030140475460122E4F5F6
:0226B7004622B9
:102E480030090A90012B1207DF00000000302D53D3
:102E5800C22D202C44E4FFFEFDFC123795C3120757
:102E68008C700280341237A4E4FAF9F8EF2401FFD9
:102E7800EA3EFEE93DFDE83CFC90012B1207D31227
:102E880037A4123795D312078C501890012B1207CC
:102E9800DF000000007546032290012B1207DF00B7
:042EA8000000002204
:10291B00022BDAE493A3F8E493A34003F68001F2CD
:10292B0008DFF48029E493A3F85407240CC8C333BD
:10293B00C4540F4420C8834004F456800146F6DF8C
:10294B00E4800B01020408102040809020F0E47E0C
:10295B00019360BCA3FF543F30E509541FFEE49381
:10296B00A360010ECF54C025E060A840B8E493A348
:10297B00FAE493A3F8E493A3C8C582C8CAC583CA73
:10298B00F0A3C8C582C8CAC583CADFE9DEE780BE2B
:0121BC000022
:10040300E709F608DFFA8046E709F208DFFA803EDB
:1004130088828C83E709F0A3DFFA8032E309F608C8
:10042300DFFA8078E309F208DFFA807088828C8330
:10043300E309F0A3DFFA806489828A83E0A3F608E4
:10044300DFFA805889828A83E0A3F208DFFA804CBE
:1004530080D280FA80C680D4806980F28033801095
:1004630080A680EA809A80A880DA80E280CA8033FE
:1004730089828A83ECFAE493A3C8C582C8CCC58376
:10048300CCF0A3C8C582C8CCC583CCDFE9DEE78046
:100493000D89828A83E493A3F608DFF9ECFAA9F0C5
:1004A300EDFB2289828A83ECFAE0A3C8C582C8CC1B
:1004B300C583CCF0A3C8C582C8CCC583CCDFEADE34
:1004C300E880DB89828A83E493A3F208DFF980CC96
:1004D30088F0EF60010E4E60C388F0ED2402B4048F
:1004E3000050B9F582EB2402B4040050AF23234536
:0604F30082239004537304
:1004F900BB010689828A83E0225002E722BBFE0201
:09050900E32289828A83E4932233
:10051200BB010CE58229F582E5833AF583E022509E
:1005220006E92582F8E622BBFE06E92582F8E222E8
:0D053200E58229F582E5833AF583E4932202
:10053F00BB010989828A83F8E028F022500327F74C
:10054F0022BBFE05F8E328F3228A838982F8E4931D
:02055F00282250
:10056100BB010689828A83F0225002F722BBFE0179
:02057100F32273
:10057300F8BB010DE58229F582E5833AF583E8F0BE
:10058300225006E92582C8F622BBFE05E92582C86A
:02059300F22252
:10059500EF8DF0A4A8F0CF8CF0A428CE8DF0A42E7A
:0205A500FE2234
:1005A700BC000BBE0029EF8DF084FFADF022E4CC38
:1005B700F875F008EF2FFFEE33FEEC33FCEE9DEC01
:1005C700984005FCEE9DFE0FD5F0E9E4CEFD22ED47
:1005D700F8F5F0EE8420D21CFEADF075F008EF2F91
:1005E700FFED33FD4007985006D5F0F222C398FD82
:0505F7000FD5F0EA221F
:1005FC00C2D5EC30E709B2D5E4C39DFDE49CFCEE1A
:10060C0030E715B2D5E4C39FFFE49EFE1205A7C3E5
:10061C00E49DFDE49CFC80031205A730D507C3E4E0
:06062C009FFFE49EFE2288
:10063200BB010A89828A83E0F5F0A3E02250068793
:10064200F009E71922BBFE07E3F5F009E319228955
:0B065200828A83E493F5F07401932288
:10065D00BB0110E58229F582E5833AF583E0F5F0DB
:10066D00A3E0225009E92582F886F008E622BBFEB8
:10067D000AE92582F8E2F5F008E222E5832AF583FE
:08068D00E993F5F0A3E99322C3
:10069500BB010789828A83020848500B09C5F027E8
:1006A500F7C5F01937F722BBFE0D09F8E325F0F37E
:1006B500C5F019E338F322F889828A8374019325FA
:0806C500F0C5F0F8E4933822BF
:1006CD00BB010A89828A83F0E5F0A3F0225006F778
:0F06DD0009A7F01922BBFE06F3E5F009F3192275
:1006EC00F8BB0111E58229F582E5833AF583E8F040
:1006FC00E5F0A3F0225009E92582C8F608A6F022FD
:0D070C00BBFE09E92582C8F2E5F008F222E3
:10071900E88FF0A4CC8BF0A42CFCE98EF0A42CFC7F
:100729008AF0EDA42CFCEA8EF0A4CDA8F08BF0A4FD
:100739002DCC3825F0FDE98FF0A42CCD35F0FCEB5C
:100749008EF0A4FEA9F0EB8FF0A4CFC5F02ECD3921
:0F075900FEE43CFCEAA42DCE35F0FDE43CFC228E
:1032AE00C2D5E830E70FB2D5E4C39BFBE49AFAE44B
:1032BE0099F9E498F8EC30E717B2D51232E4120817
:1032CE009AE4C39BFBE49AFAE499F9E498F8800334
:1032DE0012089A30D50DE4C39FFFE49EFEE49DFDD7
:0432EE00E49CFC223E
:0E076800C3E49FFFE49EFEE49DFDE49CFC22A2
:10077600EB9FF5F0EA9E42F0E99D42F0EC6480C8FA
:0607860064809845F0229A
:10078C00EB9FF5F0EA9E42F0E99D42F0E89C45F0C3
:01079C00223A
:10079D00E8600FECC313FCED13FDEE13FEEF13FF3A
:0307AD00D8F1225E
:1007B000E8600FEFC333FFEE33FEED33FDEC33FCA7
:0307C000D8F1224B
:1007C300E493FC740193FD740293FE740393FF227C
:0C07D300ECF0A3EDF0A3EEF0A3EFF02299
:1007DF00A8828583F0D083D0821207F61207F61213
:1007EF0007F61207F6E473E493A3C583C5F0C58338
:1007FF00C8C582C8F0A3C583C5F0C583C8C582C864
:01080F0022C6
:0C081000A42582F582E5F03583F58322F3
:10006600E5652459F8E60565227856302702785961
:10007600E475F00112092C0204F92020EB7F2ED240
:10008600208018EF540F2490D43440D4FF30240B32
:10009600EF24BFB41A0050032461FFE56660021521
:1000A600660569E5697002056830270D7856E475BE
:1000B600F00112092CEF0205610232F27403D22715
:1000C6008003E4C227F5658B568A578958E4F5669E
:1000D600F568F569E56660077F201200A180F57571
:1000E60067FFC221C220C222C223C225C226C2285D
:1000F60012006FFF700D3027057F001200B2AF6946
:10010600AE6822B4255FC2D5C22412006FFF24D088
:10011600B40A00501A75F00A786630D50508B6FF9D
:100126000106C6A426F620D5047002D22380D9245F
:10013600CFB41A00EF5004C2E5D2240202B2D22193
:1001460080C6D22080C0D22280BCD2D580BAD22529
:1001560080B47F201200A12022077401B5660040FA
:10016600F1120066FF1200A10200DAD228D2268020
:1001760095120066FB120066FA120066F94A4B7089
:100186000679837A037BFF20222EE566602A7E00AD
:100196008E8275830012051260060EEE656770F09A
:1001A600C2D5EBC0E0EAC0E0E9C0E0EE1202F9D049
:1001B600E0F9D0E0FAD0E0FB1204F9FF60AAEBC048
:1001C600E0EAC0E0E9C0E01200A1D0E02401F9D0E5
:1001D600E03400FAD0E0FBE5670460DCD567D9803F
:1001E600877BFF7A0279F5D222809C79108002798A
:1001F60008C226C2288008D2D5790A8004790AC2A4
:10020600D5E567047002F567E4FAFDFEFF120066A5
:10021600FC7B08202113120066FD7B1030200A1299
:100226000066FE120066FF7B20EC3382D592D55025
:1002360013C3E43020069FFFE49EFEE42021039DC5
:10024600FDE49CFCE4CBF8C221EC700CCFCECDCC07
:10025600E824F8F870F38017C3EF33FFEE33FEEDB2
:1002660033FDEC33FCEB33FB994002FB0FD8E9EB93
:10027600302105F8D0E0C448B221C0E00AEC4D4E6A
:100286004F78207B0070C2EAB5670040BCC0E01220
:1002960002FBD0F0D0E0202104C4C0E0C4B221C0EB
:1002A600F012008AD0F0D5F0EB0200DA12093C0118
:1002B600775301F15801484C01444201F54F01FDC5
:0F02C6004401FD49015D4302035501E74601E78D
:1002D5004501E74703A350014C2D01502E01732B17
:1002E500015423017120038C2A010C480000016B85
:1002F5003F3F3F00790AA2D5202314302509B910C4
:10030500020404B9080104A2D520260250010420E4
:1003150022689222B566005034C0E07F2030231950
:100325007F30A22272267225500F120352C222C2BA
:1003350026C225C2287F30800F302503E9C0E01290
:1003450000A1302503D0E0F9D0E0B566CC30251703
:100355007F30B9100C1200A17F583024077F7880B8
:1003650003B908031200A13022057F2D0200A17FE9
:10037500202028F87F2B2026F322922280CF286E7A
:10038500756C6C2900D2211200663021F8C22178E3
:100395006630D50108F602010C2D5043495812006C
:1003A500662403B405004001E490039E9312009275
:0D03B500743A120092D2237566040201F121
:0C3A2900EE30E707C3E49FFFE49EFE229E
:10081C00EF4E6012EF60010EEDBB010B89828A83F3
:10082C00F0A3DFFCDEFA2289F05007F709DFFCA900
:0C083C00F022BBFEFCF309DFFCA9F02257
:10084800C5F0F8A3E028F0C5F0F8E582158270023B
:060858001583E038F022D8
:10085E0075F008758200EF2FFFEE33FECD33CDCC51
:10086E0033CCC58233C5829BED9AEC99E5829840D4
:10087E000CF582EE9BFEED9AFDEC99FC0FD5F0D6B1
:10088E00E4CEFBE4CDFAE4CCF9A88222B800C1B9DB
:10089E000059BA002DEC8BF084CFCECDFCE5F0CB19
:1008AE00F97818EF2FFFEE33FEED33FDEC33FCEB52
:1008BE0033FB10D703994004EB99FB0FD8E5E4F90D
:1008CE00FA227818EF2FFFEE33FEED33FDEC33FCFA
:1008DE00C933C910D7059BE99A4007EC9BFCE99AEE
:1008EE00F90FD8E0E4C9FAE4CCFB2275F010EF2F33
:1008FE00FFEE33FEED33FDCC33CCC833C810D70733
:10090E009BEC9AE899400AED9BFDEC9AFCE899F86D
:0E091E000FD5F0DAE4CDFBE4CCFAE4C8F92200
:10092C00FAE6FB0808E6F925F0F618E6CA3AF622CC
:10093C00D083D082F8E4937012740193700DA3A34A
:10094C0093F8740193F5828883E47374029368605E
:06095C00EFA3A3A380DF5E
:00000001FF
