:03000000021000EB
:03040000021609D8
:03100000021609CC
:0C16090078FFE4F6D8FD758171021650E0
:101D53000001010201020203010202030203030460
:101D63000001020103010201040102010301020156
:100FD800EEC4F854F0C868FEEFC4540F482463F513
:100FE80082741D3EF583E49322EF540F2463F58247
:080FF800EE341DF583E49322A1
:101DD100E4F5199009317480F0900931E030E7F9A8
:0C1DE1007F0A7E00121EB3900930E0FF64
:011DED0022D3
:021A7A008F6873
:101A7C0085686BC2AFC2A17F137E00121EB3E4F562
:101A8C0069E56830E004D2A18002C2A1E568A2E752
:101A9C0013F5687F127E00121EB30569E569C394C5
:101AAC000840DED2A17F127E00121EB3D2AFAF6807
:011ABC002207
:0F1F1D00EFC4540F901D5393FEEF540F932EFFFC
:011F2C002292
:101C4300EF6012540F60077E00120FF1FF22120F94
:101C5300D82404FF22EE6015FF7E00540F600712A4
:0F1C63000FF12408FF22120FD8240CFF227F005C
:011C7200224F
:101D3200E4FDFCC3ED9FEC9E5016E4FBFA000BBBE6
:101D420000010ABA03F7BBC5F40DBD00010C80E324
:011D5200226E
:101EB300E4FDFCC3ED9FEC9E5008000DBD00010C3A
:021EC30080F1AC
:011EC50022FA
:08000300E4F586F585F5842281
:101944007591FF759AFFE4F5D875A9FFF5AEF5EB2F
:101954007580FFF593F59EF5D9F5AAF5AFF5EC750D
:1019640090FFF594F59FF5DAF5ABF5B4F5ED75A0B8
:10197400FF75950175A501F5DBF5ACF5B5F5EE75CB
:10198400B0F1F596F5A7F5DCF5ADF5B6F5EF75B75D
:02199400FF2230
:101E2700438540C2A9C28CC28D5389F0438901758D
:081E37008A56758CD6D28C226C
:101E3F00438540C2ABC28EC28F53890F4389107541
:081E4F008B66758DFDD28E2219
:101E6F00438540C2CAC2CFE4F5C875CBFF75CAFA25
:071E7F0075CC9675CDF5222C
:03000B00021EC60C
:101EC600C0E0C28CC28D758A56758CD6D28CD2066D
:031ED600D0E03227
:03001B0002000ED2
:0D000E00C28EC28F758B66758DFDD28E324D
:03002B00021F7F32
:071F7F00C2CFC2ADC2CA329D
:101E5700900918E4F0A3F0A37442F0900918E04445
:081E670004F0D2EC75EA02223E
:03006300021DEE8D
:101DEE00C0E0C083C08253C0EF900918E04410F0E9
:0D1DFE00E04404F0D206D082D083D0E03261
:101ED900616443616C6962203D20307825780D0A80
:011EE90000F8
:0214E8008F541F
:1014EA004385807F327E00121EB39009217410F06A
:1014FA0090092374C8F0A37440F0900922E4F0E044
:10150A00FFE55433333354F8FEEF4EF0E04402F073
:10151A0012156AE0900920E0FD90092212156AE08E
:10152A005403FE900920E0FDEDFF900922E054F9F2
:10153A00F0E4F053C0BF53E8BF53857FC3EF95165D
:10154A00FFEE9515FED3EF94FFEE6480948340047A
:0F155A007E037FFFC3EE648094805003E4FEFFA6
:1015690022E04442F07F327E00121EB3900921220C
:021721008F50E7
:101723007401C8EFC8088002C333D8FCFF4295EFA9
:1017330042A5EFF452ACD209D20A12116BE4F5536D
:10174300F551F552F515F516F553AF501214E8EFB0
:101753002552F552EE3551F5510553E553C3942007
:1017630040E8E552AE517805CEC313CE13D8F9F550
:10177300168E15E42516F51674FE3515F5157BFF43
:101783007A1E79D9F5578516581200C8D209C20AAC
:1017930012116BAF507401C8EFC8088002C333D86D
:0317A300FC42AC59
:0117A6002220
:101AF900649B649B649C23C05380FC3DC800009A8E
:101B090040C086E41949DCEDB4817807800002FE03
:101B1900FF262808E01111130C00127300B6B780D4
:0C1B290000412008048120CFF7FEFFFFE0
:1016950078877C087D017B017A0079287E007F05AB
:1016A500120BA778957B017A0079287F057C087D48
:1016B500017E00020BA7F557E556F556E555F5559C
:1016C500E554224FF09008B57401F022E4F0A3F040
:1016D500A3F0A322AF5CAE5BAD5AAC59020C1CAFB4
:1016E50055AE54AD53AC52020C1CF8EF4BFFEE4A0D
:1016F500FEED49FDEC48FCEC22F09008B5E4F090D5
:101705000880E0229008B674A0F0229008B5E4F0B5
:0C171500900886E0229008837403F02204
:10116B00901B1A120C42E4FFFEE4FC7808120C1CD4
:10117B00ECC0E0EDC0E0EEC0E0EFC0E0120C42E4EA
:10118B00FFFEFDEC7818120C1CD0E0FBD0E0FAD07F
:10119B00E0F9D0E01216EFC0E0EDC0E0EEC0E0EFFA
:1011AB00C0E0120C42E4FFE4FDFC7808120C2FD0D7
:1011BB00E0FBD0E0FAD0E0F9D0E01216EFC0E0EDA2
:1011CB00C0E0EEC0E0EFC0E0120C42E4FEFDFC78A4
:1011DB0018120C2FD0E0FBD0E0FAD0E0F9D0E0F8F9
:1011EB00EF4BF557EE4AF556ED49F555EC48F554EE
:1011FB00E557300A091216BB4402F5548007121644
:10120B00BB54FDF554E5573009091216BB4401F5E3
:10121B005480071216BB54FEF55485575C85565BFC
:0B122B0085555A8554597F07021ABDF3
:100EC400E4F550E55025E025E024FEF582E4341AEB
:100ED400F583120C428F558E548D538C52AF5012A1
:100EE4001C0F0550E550D3940840D87554FF755530
:100EF4001B75562275570075580479A2120FD075C8
:100F040054FF75551B75562675570075580479A6F8
:100F1400120FD07554FF75551B75562A75570075F9
:100F2400580B7B017A0879AA121B6E9008D012160E
:100F3400D17496F0A31216D174A0F0A3740AF0A38E
:100F4400E4F0A3F0A374B0F0A37401F0A3E4F0A35D
:100F54007409F0A374AAF0A37482F0A374FFF0A33D
:100F64007407F0A37481F0900880747FF0A3743F39
:100F7400F0A37401F0A37403F0A37411F0A3742814
:100F8400F0A314F078871216AA788C1216AA900887
:100F9400917412F0A304F0A304F0A304F01216A8B1
:100FA40090089A74201216D21216D2743FF0A374C9
:100FB40007F0900880E054FDF0E04402F0E054FDB6
:0B0FC400F09008B5E4F004F043E808EA
:090FCF00227B017A08121B6E223C
:101ABD00CBEFCB9008BCE030E7F978181216D9902F
:101ACD0008BBEFF078101216D99008BAEFF0AF5CA2
:101ADD00AE5BAD5AAC597808120C1C9008B9EFF0FA
:0C1AED009008B8E55CF09008BCEBF0221B
:101C0F00CBEFCB9008BCE030E7F978181216E490D0
:101C1F0008B8EFF078101216E4A3EFF0AF55AE54FA
:101C2F00AD53AC527808120C1CA3EFF0A3E555F09E
:041C3F00A3EBF02201
:101E86008F1A9008BCE030E7F978B87F041216B2D2
:071E96009008BCE51AF022E0
:061B6E008B518A528953DD
:101B7400E4FFEFC39558E5576480F8748098501FCC
:101B8400AB54AA55A9568F82758300120BCDAB5165
:0F1B9400AA52A9538F82758300120BFA0F80D3C8
:011BA300221F
:021890008F08BF
:10189200E4FB901B06120C42C374039B75F008A470
:1018A200F9F8120C1C74092BF8C6EFC60BBB04E244
:1018B200E5087012530B7F530C80430C40FB121847
:1018C200E14420F08011430B80530C80430C407B99
:0E18D200001218E154DFF09008B5E4F004F0C5
:0F18E000227A0079097F02121E869008E3E02227
:101EEA009008B67480F074A01216FE44011216C946
:011EFA0022C5
:0E1F4B0012170974801216FE54FE1216C922D7
:0D001E009008B5E4F0900885EF1216C92295
:091F650012171054D71216C822FD
:091F6E0012171054F91216C822D2
:0F1F2D009008B5E4F0900884E054F01216C82232
:101D100078877BFF7A1A79F91216B078957C087D5E
:101D2000017BFF7A1A79F97E007F05120BA7121743
:021D30001A2275
:071F860012169512171A2232
:0C1F5900900028EFF012169512171A22C3
:101B3500802FEF54716031EF30E4091217099008D6
:101B4500C07410F0EF30E60C9008B67480F0900881
:101B5500C07440F0EF30E5069008C07420F012170D
:081B6500099008C0E0FF80CAEE
:011B6D002255
:10182400CAEBCAEF541FFF9008E1E054E04FF0ED1B
:101834005403C43354E0FFE0549F4FF030120B754F
:101844005C49755BDC755AED8009755C49755BDC38
:10185400755AEC7559B47F04121ABDEA54037E001C
:101864007816C333CE33CED8F9FFEE3395E0FDFCC2
:10187400EF44C0FFEE4486FEED4424FDEC44198F92
:0C1884005C8E5B8D5AF5597F03021ABD83
:101CA30090090074A5F07449F0ED900902F0ECA3DB
:101CB300F02290090574A5F0A374C3F022EB25E08C
:071CC3004441900901F022E9
:101D7300CAEFCAEA7003121CB5121CA3A3EBF0EA64
:101D830025E04481900901F0900901E020E7F92260
:101CCA00CBEFCB121CA3121CC0900901E020E6F94D
:101CDA00121CA3121CC0900901E020E6F990090425
:031CEA00E0FF22F6
:101CED00CBEFCBEB7003121CB59009017401F01210
:101CFD001CA3EB25E04421900901F0900901E0209F
:031D0D00E5F922D3
:071F8D00E4FDFCFF021CCA89
:101C730020322020002532627820002D2D2D2D2D9D
:101C83002D2D2D2D2D2D2D2D2D2D2D2D6B625F6C9D
:101C930065645F7374613D202562780D0A0031002D
:04005E000217000A7B
:0F1F3C0014F00518E518229008B6F09008C0229E
:03005B00021F770A
:081F7700C0E053C0F7D0E032D6
:101453009008B7E512F0900005E09008B7F090000F
:1014630006E09008B7F0900007E09008B7F090000E
:1014730008E09008B7F0900009E09008B7F09000FA
:101483000AE09008B7F090000BE09008B7F09000E6
:101493000CE09008B7F090000DE09008B7F09000D2
:1014A3000EE09008B7F090000FE09008B7F09000BE
:1014B30010E09008B7F0900011E09008B7F005181D
:1014C300E51870020517121F3C70020517121F3C26
:1014D30070020517121F3C70020517121F3C7002A1
:0514E300051714F022C2
:0817A7008B0D8A0E890F8D10D5
:1017AF009008B674A0F07480F0900880E054FDF0BB
:1017BF00E04402F09008C07470F07F327E00121E79
:1017CF00B39008B67460F0E4FFEFC395105015ABFB
:1017DF000DAA0EA90F8F82758300120BCD9008B73B
:1017EF00F00F80E59008B6E4F043E8084386015314
:1017FF00E8F79008C0E0FF547060F7EF30E5037F23
:10180F002022EF30E4037F10227BFF7A1C797312C2
:04181F0000C87F106E
:0118230022A2
:101300009008B5E4F002137EE550547160797BFFDC
:0F1310007A1C79788550571200C8E55030E631C5
:10131F009008C4E0F551B4011C9008B67440F00079
:10132F0000A3E0F5117BFF7A1C797EF5571200C8F8
:10133F009008B6E4F07480121F437440F0E4786CA8
:01134F00F6A7
:10135000E55030E51574A0121F437420F0E4786C5A
:10136000F67BFF7A1C79A11200C8E55030E40F909B
:1013700008B67480F074A0F09008C07410F0900863
:10138000C0E0F550021308900880E04402F0E4FF4A
:10139000121F599008867427F0121F4B9008B674DC
:1013A00060F07F0A7E00121EB31214539008B6E458
:0D13B000F09008B504F07F647E00021EB3CB
:1007AD00636C722062617420636872670D0A006960
:1007BD006E746F2062617420636872670D0A006247
:1007CD006B323533352074782E2E2E0D0A006E6562
:1007DD0074727869643D25627820256278202562DF
:1007ED00782025627820256278202D2D20256278AD
:1007FD000D0A00696E69742072660D0A00696E69D2
:10080D0074206F6B0D0A0053657420524620736976
:10081D006E6765776176650D0A00646F20706F777E
:10082D00657220646F776E0D0A005072696E7420C8
:10083D00424B323533352052462052656720537472
:10084D00617274203A0A00424B323430315F434FAB
:10085D004E464947203A2030782562780A00424BAF
:10086D00323430315F454E4141203A203078256297
:10087D00780A00424B323430315F454E5258203A9F
:10088D002030782562780A00424B323430315F4196
:10089D0057203A2030782562780A00424B323430A6
:1008AD00315F52455452203A2030782562780A0043
:1008BD00424B323430315F52464348203A20307833
:1008CD002562780A00424B323430315F534554551E
:1008DD0050203A2030782562780A00424B3234306D
:1008ED00315F52305F41444452203A2030783025F8
:1008FD0062780030256278002562780A00424B321A
:10090D003430315F52315F414444523A20307830B7
:10091D0025627800424B323430315F52325F4144B0
:10092D0044523A2030782562780A00424B323430F6
:10093D00315F52335F41444452203A203078256272
:10094D00780A00424B323430315F52345F414444B7
:10095D0052203A2030782562780A00424B323430EA
:10096D00315F52355F41444452203A203078256240
:10097D00780A00424B323430315F54585F41444461
:10098D0052203A2030783025627800424B32343094
:10099D00315F52305F5057203A2030782562780A07
:1009AD0000424B323430315F52315F5057203A2084
:1009BD0030782562780A00424B323430315F523242
:1009CD005F5057203A2030782562780A00424B322A
:1009DD003430315F52335F5057203A2030782562E2
:1009ED00780A00424B323430315F52345F50572019
:1009FD003A2030782562780A00424B323430315F2C
:100A0D0052355F5057203A2030782562780A0042DF
:100A1D004B323430315F44594E5044203A203078B7
:100A2D002562780A00424B323430315F46454154DD
:100A3D00555245203A203078302562780A00424BD5
:100A4D00323430315F4346475F30435F30203A20C8
:100A5D003078302562780025627800302562780A7A
:100A6D0000424B323430315F4346475F30445F3094
:100A7D00203A20307825627800424B323430315F95
:100A8D0052414D505F5441425F30203A203078251D
:100A9D006278200025627820003025627820005091
:100AAD0072696E7420424B323533352052462052D6
:100ABD00656720456E643B0A0073797374656D201C
:0A0ACD00696E6974206F6B0D0A005A
:101E9D000547E547C3940422E0FB7C00E4FF229054
:061EAD0008B57401F022EB
:10123600D3E51494CCE51394024018E5466005E422
:10124600F546F547121E9D50030212FF754704E44A
:10125600F54422D3E5149490E5139402401BE54629
:1012660064016006754601E4F547121E9D500302AF
:1012760012FF75470475440122D3E514945CE51307
:1012860094024018E54664026006754602E4F54796
:10129600121E9D406475470475440222D3E51494DA
:1012A60039E51394024018E5466403600675460363
:1012B600E4F547121E9D404175470475440322D349
:1012C600E5149428E51394024018E5466404600684
:1012D600754604E4F547121E9D401E754704754485
:1012E6000422E54664056006754605E4F547121EC8
:0A12F6009D4006754704754405226B
:1019E70030132530810BE548C39404500705488020
:1019F70003E4F548E548C394044033C213E4F548CB
:101A07007BFF7A0779AD802320810BE548C39404D7
:101A1700500705488003E4F548E548C39404400EA1
:0F1A2700D213E4F5487BFF7A0779BC1200C8227E
:101E0B00EF30E006C2B7C2B68004D2B7D2B6EF301D
:0C1E1B00E105C2B6C2B722D2B6D2B7228F
:10199600E544C39404501F900015E06007E512303B
:1019A600E523800E786FE6600916E630E4028015BE
:1019B60080007F018027900015E0600DE51230E57C
:1019C600047F028018E4FF8014786FE6600D16E647
:1019D60030E404E4FF80067F0280027F02121E0BC1
:0119E60022DE
:101A3600E4900015F0D200C203C204C207C201C27C
:101A460013900000F0A3F0900016F0A3F0900002AF
:101A5600F0900004F0900014F0F548F511FE7F0DAB
:101A6600FD7B017A007905120C5EE4900012F0907D
:041A76000003F02257
:031F9400D208224E
:10157900120003121944C2AF121E277BFF7A0779A2
:10158900CC1200C8121A36121BA4E4900028F0A34A
:1015990004F0A304F0A304F0A37464F07BFF7A07BA
:1015A90079DB900028E0F557A3E0F558A3E0F55959
:1015B900A3E0F55A755B64900002E0F55C1200C87F
:1015C9007BFF7A0879001200C8120EC49008B5E4AE
:1015D900F0900880E04402F0121B35121F86900833
:1015E900847414F09008867427F0121F4B121EACF5
:1015F900D2007BFF7A08790A1200C8D2A9D2AF2299
:101BDA007BFF7A0879141200C89008B5E4F0121F46
:101BEA004B9008B5E4F0900885742CF0121EACE412
:101BFA00FF121890121EAC7FF47E01121D32A2B79A
:051C0A00B392B780F267
:10002E00E4FDFCFF121CED9000297D11121EA5129D
:10003E001D7390002A7D12121EA5121D7390002BA7
:0B004E00E0FB7D137C00E4FF021D734B
:101BA4007D11121BD2900029EFF07D12121BD290EE
:101BB400002AEFF07D137C00E4FF121CCA90002B76
:101BC400EFF0E4900028F090002C7464F0227C0084
:061BD400E4FF121CCA220E
:101D9300C2AF7BFF7A0879271200C8900880E0540D
:0F1DA300FDF09008B5E4F0FF121E0BC29180FE18
:100403007A0879371207A3121D327A0879549008B3
:10041300801206B17A08796B9008811206B17A08C6
:1004230079809008821206C17A0879959008831220
:1004330006C17A0879A89008841206D17A0879BD92
:100443009008851206D17A0879D29008861206E1BF
:100453007A0879E89008871206E19008881205D196
:1004630090088912066590088A1205D190088B12AC
:1004730007737A09790A90088C1206F190088D1295
:1004830005FD7A09790090088E12079590088F125E
:1004930005FD9008901207737A097921900891124B
:1004A30006F17A0979389008921207017A0979508E
:1004B3009008931207017A0979689008941207113A
:1004C3007A097980900895120711900896120629E7
:1004D3009008971206297BFF9008981206659008EA
:1004E3009912063D7A09799890089A1207217A0998
:1004F30079AE90089B1207217A0979C490089C125F
:1005030007317A0979DA90089D1207317A0979F06F
:1005130090089E1207417A0A790690089F120741B4
:100523007A0A791C9008A01207517A0A7932900846
:10053300A11207517A0A794B9008A21207859008F5
:10054300A31206519008A41206519008A51206772B
:100553007A0A796E9008A61207859008A712068B6F
:100563009008A812068B9008A91206777BFF7A0AD7
:1005730079869008AA1207959008AB1205E79008B0
:10058300AC12069F7BFF9008AD12069F9008AE1237
:1005930005E79008AF1207619008B01206139008A0
:1005A300B11207619008B21206137A0A79A1900872
:1005B300B3E0F5571200C87F0A7E00121D3290087F
:1005C300B412063D7A0A79AC1207A3021D327BFFEF
:1005D3007A097900E0F5571200C87F0A7E00121DE0
:1005E300327BFF227BFF7A0A79A1E0F5571200C81C
:1005F3007F0A7E00121D327BFF227BFF7A0979007E
:10060300E0F5571200C87F0A7E00121D327BFF22DD
:100613007BFF7A0A79A1E0F5571200C87F0A7E00B2
:10062300121D327BFF227BFF7A097900E0F5571216
:1006330000C87F0A7E00121D32227BFF7A097905EA
:10064300E0F5571200C87F0A7E00121D32227BFF9D
:100653007A0A7964E0F5571200C87F0A7E00121DFA
:1006630032227A097900E0F5571200C87F0A7E002A
:10067300121D32227BFF7A0A7968E0F5571200C80F
:100683007F0A7E00121D32227BFF7A0A7964E0F52D
:10069300571200C87F0A7E00121D32227A0A79A6F9
:1006A300E0F5571200C87F0A7E00121D32227BFF3D
:1006B300E0F5571200C87F0A7E00121D32227BFF2D
:1006C300E0F5571200C87F0A7E00121D32227BFF1D
:1006D300E0F5571200C87F0A7E00121D32227BFF0D
:1006E300E0F5571200C87F0A7E00121D32227BFFFD
:1006F300E0F5571200C87F0A7E00121D32227BFFED
:10070300E0F5571200C87F0A7E00121D32227BFFDC
:10071300E0F5571200C87F0A7E00121D32227BFFCC
:10072300E0F5571200C87F0A7E00121D32227BFFBC
:10073300E0F5571200C87F0A7E00121D32227BFFAC
:10074300E0F5571200C87F0A7E00121D32227BFF9C
:10075300E0F5571200C87F0A7E00121D32227A0A82
:1007630079A1E0F5571200C87F0A7E00121D3222DC
:100773007A097905E0F5571200C87F0A7E00121D39
:1007830032227BFFE0F5571200C87F0A7E00121D5C
:100793003222E0F5571200C87F0A7E00121D322272
:0A07A3007BFF1200C87F0A7E0022CF
:1013BD00121F94121579C208D209C20A12116B7F3D
:1013CD00051217217BFF7A0A79C61200C8E543146E
:1013DD00600B0470051200008003E4F543D2A930C0
:1013ED0006EBC206054AE54A70020549C39432E58B
:1013FD004994005007D2B67524018022C3E54A9462
:10140D0032E54994004012D3E54A9464E5499400CD
:10141D005007C2B6E4F5248005E4F549F54A054CBC
:10142D00E54C7002054BD39405E54B94004010E458
:10143D00F54BF54C1213000512120CEB1203C2D230
:06144D00A97586018087ED
:1010030029000000000000000000000000000000B4
:1010130000000000000000000000000000000000CD
:1010230000000000000000000000000000000000BD
:1010330000000000000000000000000000000000AD
:10104300000000000000000000000000000000009D
:10105300000000000000000000000000000000008D
:10106300000000000000000000000000000000007D
:10107300000000000000000000000000000000006D
:101083000000000000000000022300000000000038
:10109300000000000000000000000000000000004D
:1010A300000000000000000000000000000000003D
:1010B300000000000000000000000000000000002D
:1010C300000000000000000000000000000000001D
:1010D300000000000000000000000000000000000D
:1010E30000000000000000000000000000000000FD
:1010F30000000000000000000000000000000000ED
:1011030000000000000000000000000000000000DC
:1011130000000000000000000000000000000000CC
:1011230000000000000000000000000000000000BC
:1011330000000000000000000000000000000000AC
:10114300000000000000000000000000000000009C
:10115300000000000000000000000000000000008C
:08116300000000000000000084
:101DB20074192550F582E43400F583E0227E007D1B
:0F1DC200007B01020C5E7E007D007B01020C5E47
:1018EF007F0F7A007919121DBF900019E0FF308029
:1018FF00047E0080027E01EF4E900019F0A3E0FFFE
:10190F003081047E0080027E01EF4E90001AF0902D
:10191F000027E0FF3082047E0080027E40EF4E9071
:10192F000027F0E0FF3083047E0080027E80EF4EC0
:05193F00900027F022DA
:101EFB00E4FFFE74192E121DB6CF4FCF0EBE0FF39B
:011F0B0022B3
:101F0C007F0A7E00121D321218EF121EFBEF70F0CA
:011F1C0022A2
:1003C2007F047A00790C121DBF900027E0FD30E413
:1003D2000790000CE04401F0ED30E50790000CE0DE
:1003E2004402F0900027E030E60690000D7405F01C
:0E03F200900027E030E70690000E7405F02220
:100CEB007F077A007905121DC87F027A00791012EE
:100CFB001DC8786DE6FF08E67870CFF608EFF6E4CE
:100D0B00786DF608F61218EFC205E4F550121DB215
:100D1B00FF121F1DEFD394014074E55004F551E50C
:100D2B0051C3940E506874192551121DB6FF121F32
:100D3B001DEFD39401405274192551121DB6FF12A9
:100D4B001F1D7E00EEC0E0EFC0E0121DB2FF121FB0
:100D5B001DEFFDD0E02DFFD0E03400FEEEC0E0EF44
:100D6B00C0E074192551121DB6FF121DB24FFF12B0
:100D7B001F1DEFFDD0E0FFD0E0FEC3ED9FEE6480C2
:100D8B00F87480985003D205220551020D2A0550A4
:0F0D9B00E550C3940E5003020D187D01E4F5508E
:100DAA00121DB2F5526075E4F551E55230E05FE587
:100DBA0050C454F0247BF582E43410F58375F002B4
:100DCA00E551120C52E493FA740193FBEA540FFFB3
:100DDA00900010E054F04FF0EBA3F0E55075F008E6
:100DEA00A42403F582E43410F583E5822551F582C3
:100DFA00E43583F583E493FFCEEDCE0D74052EF52D
:100E0A0082E43400F583EFF0EDD394065019E552ED
:0C0E1A00C313F5520551E5516408708EB9
:100E26000550E550640F6003020DAA900027E0FD0F
:100E360030E007900010E04410F0ED30E10790003C
:100E460010E04420F0900027E030E207900010E028
:100E56004440F0900026E0FD30E007900005E044B5
:100E660001F0ED30E107900005E04402F090002625
:100E7600E030E207900005E04404F0900026E0FD33
:100E860030E307900005E04408F0ED30E4079000F9
:100E960005E04410F0900026E030E507900005E0FC
:100EA6004420F0900026E0FD30E607900005E0447F
:0D0EB60040F0ED30E707900005E04480F0CB
:010EC300220C
:101615000213BDE493A3F8E493A34003F68001F21B
:1016250008DFF48029E493A3F85407240CC8C333D6
:10163500C4540F4420C8834004F456800146F6DFA5
:10164500E4800B010204081020408090005EE47ED7
:10165500019360BCA3FF543F30E509541FFEE4939A
:10166500A360010ECF54C025E060A840B8E493A361
:10167500FAE493A3F8E493A3C8C582C8CAC583CA8C
:10168500F0A3C8C582C8CAC583CADFE9DEE780BE44
:01006200009D
:100AD700E709F608DFFA8046E709F208DFFA803E01
:100AE70088828C83E709F0A3DFFA8032E309F608EE
:100AF700DFFA8078E309F208DFFA807088828C8356
:100B0700E309F0A3DFFA806489828A83E0A3F60809
:100B1700DFFA805889828A83E0A3F208DFFA804CE3
:100B270080D280FA80C680D4806980F280338010BA
:100B370080A680EA809A80A880DA80E280CA803323
:100B470089828A83ECFAE493A3C8C582C8CCC5839B
:100B5700CCF0A3C8C582C8CCC583CCDFE9DEE7806B
:100B67000D89828A83E493A3F608DFF9ECFAA9F0EA
:100B7700EDFB2289828A83ECFAE0A3C8C582C8CC40
:100B8700C583CCF0A3C8C582C8CCC583CCDFEADE59
:100B9700E880DB89828A83E493A3F208DFF980CCBB
:100BA70088F0EF60010E4E60C388F0ED2402B404B4
:100BB7000050B9F582EB2402B4040050AF2323455B
:060BC7008223900B27734E
:100BCD00BB010CE58229F582E5833AF583E02250DD
:100BDD0006E92582F8E622BBFE06E92582F8E22227
:0D0BED00E58229F582E5833AF583E4932241
:100BFA00F8BB010DE58229F582E5833AF583E8F031
:100C0A00225006E92582C8F622BBFE05E92582C8DC
:020C1A00F222C4
:100C1C00E8600FECC313FCED13FDEE13FEEF13FFB6
:030C2C00D8F122DA
:100C2F00E8600FEFC333FFEE33FEED33FDEC33FC23
:030C3F00D8F122C7
:100C4200E493FC740193FD740293FE740393FF22F8
:0C0C5200A42582F582E5F03583F58322AD
:10006600E5632457F8E60563227854301002785782
:10007600E475F001120CB5020C8A2009EB7F2ED232
:10008600098018EF540F2490D43440D4FF300D0B60
:10009600EF24BFB41A0050032461FFE56460021523
:1000A600640567E5677002056630100D7854E475DF
:1000B600F001120CB5EF020CA3021A7A7403D210E7
:1000C6008003E4C210F5638B548A558956E4F564BF
:1000D600F566F567E56460077F201200A180F57577
:1000E60065FFC20AC209C20BC20CC20EC20FC21100
:1000F60012006FFF700D3010057F001200B2AF675F
:10010600AE6622B4255FC2D5C20D12006FFF24D0A1
:10011600B40A00501A75F00A786430D50508B6FF9F
:100126000106C6A426F620D5047002D20C80D92476
:10013600CFB41A00EF5004C2E5D20D0202B2D20AC1
:1001460080C6D20980C0D20B80BCD2D580BAD20E6E
:1001560080B47F201200A1200B077401B564004013
:10016600F1120066FF1200A10200DAD211D20F804E
:1001760095120066FB120066FA120066F94A4B7089
:100186000679837A037BFF200B2EE564602A7E00C6
:100196008E82758300120BCD60060EEE656570F0DB
:1001A600C2D5EBC0E0EAC0E0E9C0E0EE1202F9D049
:1001B600E0F9D0E0FAD0E0FB120C8AFF60AAEBC0AF
:1001C600E0EAC0E0E9C0E01200A1D0E02401F9D0E5
:1001D600E03400FAD0E0FBE5650460DCD565D98043
:1001E600877BFF7A0279F5D20B809C7910800279A1
:1001F60008C20FC2118008D2D5790A8004790AC2D2
:10020600D5E565047002F565E4FAFDFEFF120066A9
:10021600FC7B08200A13120066FD7B1030090A12C7
:100226000066FE120066FF7B20EC3382D592D55025
:1002360013C3E43009069FFFE49EFEE4200A039DF3
:10024600FDE49CFCE4CBF8C20AEC700CCFCECDCC1E
:10025600E824F8F870F38017C3EF33FFEE33FEEDB2
:1002660033FDEC33FCEB33FB994002FB0FD8E9EB93
:10027600300A05F8D0E0C448B20AC0E00AEC4D4E98
:100286004F78207B0070C2EAB5650040BCC0E01222
:1002960002FBD0F0D0E0200A04C4C0E0C4B20AC019
:1002A600F012008AD0F0D5F0EB0200DA120CC5018C
:1002B600775301F15801484C01444201F54F01FDC5
:0F02C6004401FD49015D4302035501E74601E78D
:1002D5004501E74703A350014C2D01502E01732B17
:1002E500015423017120038C2A010C480000016B85
:1002F5003F3F3F00790AA2D5200C14300E09B910F2
:10030500020404B9080104A2D5200F0250010420FB
:100315000B68920BB564005034C0E07F20300C1997
:100325007F30A20B720F720E500F120352C20BC216
:100335000FC20EC2117F30800F300E03E9C0E012EC
:1003450000A1300E03D0E0F9D0E0B564CC300E1733
:100355007F30B9100C1200A17F58300D077F7880CF
:1003650003B908031200A1300B057F2D0200A17F00
:10037500202011F87F2B200FF322920B80CF286EBF
:10038500756C6C2900D20A120066300AF8C20A7828
:100395006430D50108F602010C2D5043495812006E
:1003A500662403B405004001E490039E9312009275
:0D03B500743A120092D20C7564040201F13A
:100C5E00EF4E6012EF60010EEDBB010B89828A83AD
:100C6E00F0A3DFFCDEFA2289F05007F709DFFCA9BA
:0C0C7E00F022BBFEFCF309DFFCA9F02211
:100C8A00BB010689828A83E0225002E722BBFE0268
:090C9A00E32289828A83E493229B
:100CA300BB010689828A83F0225002F722BBFE0130
:020CB300F3222A
:100CB500FAE6FB0808E6F925F0F618E6CA3AF62240
:100CC500D083D082F8E4937012740193700DA3A3BE
:100CD50093F8740193F5828883E4737402936860D2
:060CE500EFA3A3A380DFD2
:00000001FF
