:03000000021000EB
:0304000002155C86
:0310000002155C7A
:0C155C0078FFE4F6D8FD7581700215A33D
:101D2700000101020102020301020203020303048C
:101D37000001020103010201040102010301020182
:100FD800EEC4F854F0C868FEEFC4540F482437F53F
:100FE80082741D3EF583E49322EF540F2437F58273
:080FF800EE341DF583E49322A1
:101DA500E4F5199009317480F0900931E030E7F9D4
:0C1DB5007F0A7E00121E87900930E0FFBC
:011DC10022FF
:021A56008F6798
:101A580085676AC2AFC2A17F137E00121E87E4F5B4
:101A680068E56730E004D2A18002C2A1E567A2E779
:101A780013F5677F127E00121E870568E568C39418
:101A88000840DED2A17F127E00121E87D2AFAF6758
:011A9800222B
:0F1EF100EFC4540F901D2793FEEF540F932EFF55
:011F000022BE
:101C1F00EF6012540F60077E00120FF1FF22120FB8
:101C2F00D82404FF22EE6015FF7E00540F600712C8
:0F1C3F000FF12408FF22120FD8240CFF227F0080
:011C4E002273
:101D0600E4FDFCC3ED9FEC9E5016E4FBFA000BBB12
:101D160000010ABA03F7BBC5F40DBD00010C80E350
:011D2600229A
:101E8700E4FDFCC3ED9FEC9E5008000DBD00010C66
:021E970080F1D8
:011E99002226
:08000300E4F586F585F5842281
:101920007591FF759AFFE4F5D875A9FFF5AEF5EB53
:101930007580FFF593F59EF5D9F5AAF5AFF5EC7531
:1019400090FFF594F59FF5DAF5ABF5B4F5ED75A0DC
:10195000FF75950175A501F5DBF5ACF5B5F5EE75EF
:10196000B0F1F596F5A7F5DCF5ADF5B6F5EF75B781
:02197000FF2254
:101DFB00438540C2A9C28CC28D5389F043890175BA
:081E0B008A56758CD6D28C2298
:101E1300438540C2ABC28EC28F53890F438910756D
:081E23008B66758DFDD28E2245
:101E4300438540C2CAC2CFE4F5C875CBFF75CAFA51
:071E530075CC9675CDF52258
:03000B00021E9A38
:101E9A00C0E0C28CC28D758A56758CD6D28CD20699
:031EAA00D0E03253
:03001B0002000ED2
:0D000E00C28EC28F758B66758DFDD28E324D
:03002B00021F535E
:071F5300C2CFC2ADC2CA32C9
:101E2B00900918E4F0A3F0A37442F0900918E04471
:081E3B0004F0D2EC75EA02226A
:03006300021DC2B9
:101DC200C0E0C083C08253C0EF900918E04410F015
:0D1DD200E04404F0D206D082D083D0E0328D
:101EAD00616443616C6962203D20307825780D0AAC
:011EBD000024
:02143B008F53CD
:10143D004385807F327E00121E879009217410F043
:10144D0090092374C8F0A37440F0900922E4F0E0F1
:10145D00FFE55333333354F8FEEF4EF0E04402F022
:10146D001214BDE0900920E0FD9009221214BDE098
:10147D005403FE900920E0FDEDFF900922E054F9A0
:10148D00F0E4F053C0BF53E8BF53857FC3EF95160B
:10149D00FFEE9515FED3EF94FFEE64809483400428
:0F14AD007E037FFFC3EE648094805003E4FEFF54
:1014BC0022E04442F07F327E00121E8790092122E6
:0216FD008F4F0D
:1016FF007401C8EFC8088002C333D8FCFF4295EFCE
:10170F0042A5EFF452ACD209D20A12116BE4F55292
:10171F00F550F551F515F516F552AF4F12143BEF85
:10172F002551F551EE3550F5500552E552C3942031
:10173F0040E8E551AE507805CEC313CE13D8F9F576
:10174F00168E15E42516F51674FE3515F5157BFF67
:10175F007A1E79ADF5568516571200C8D209C20AFE
:10176F0012116BAF4F7401C8EFC8088002C333D892
:03177F00FC42AC7D
:011782002244
:101AD500649B649B649C23C05380FC3DC800009AB2
:101AE50040C086E41949DCEDB4817807800002FE28
:101AF500FF262808E01111130C00127300B6B780F9
:0C1B050000412008048120CFF7FEFFFF04
:1015E80078877C087D017B017A0079287E007F0559
:1015F800120BA778957B017A0079287F057C087DF6
:10160800017E00020BA7F556E555F555E554F5544E
:10161800E553224FF09008B57401F022E4F0A3F0EE
:10162800A3F0A322AF5BAE5AAD59AC58020C1CAF65
:1016380054AE53AD52AC51020C1CF8EF4BFFEE4ABE
:10164800FEED49FDEC48FCEC22F09008B5E4F09082
:101658000880E0229008B674A0F0229008B5E4F063
:0C166800900886E0229008837403F022B2
:10116B00901AF6120C42E4FFFEE4FC7808120C1CF9
:10117B00ECC0E0EDC0E0EEC0E0EFC0E0120C42E4EA
:10118B00FFFEFDEC7818120C1CD0E0FBD0E0FAD07F
:10119B00E0F9D0E0121642C0E0EDC0E0EEC0E0EFA7
:1011AB00C0E0120C42E4FFE4FDFC7808120C2FD0D7
:1011BB00E0FBD0E0FAD0E0F9D0E0121642C0E0ED4F
:1011CB00C0E0EEC0E0EFC0E0120C42E4FEFDFC78A4
:1011DB0018120C2FD0E0FBD0E0FAD0E0F9D0E0F8F9
:1011EB00EF4BF556EE4AF555ED49F554EC48F553F2
:1011FB00E556300A0912160E4402F55380071216F3
:10120B000E54FDF553E55630090912160E4401F53F
:10121B0053800712160E54FEF55385565B85555AAF
:0B122B008554598553587F07021A991B
:100EC400E4F54FE54F25E025E024DAF582E4341A11
:100ED400F583120C428F548E538D528C51AF4F12A6
:100EE4001BEB054FE54FD3940840D87553FF755459
:100EF4001A7555FE75560075570479A2120FD075F0
:100F040053FF75541B75550275560075570479A621
:100F1400120FD07553FF75541B7555067556007521
:100F2400570B7B017A0879AA121B4A9008D0121633
:100F3400247496F0A312162474A0F0A3740AF0A3E8
:100F4400E4F0A3F0A374B0F0A37401F0A3E4F0A35D
:100F54007409F0A374AAF0A37482F0A374FFF0A33D
:100F64007407F0A37481F0900880747FF0A3743F39
:100F7400F0A37401F0A37403F0A37411F0A3742814
:100F8400F0A314F078871215FD788C1215FD9008E3
:100F9400917412F0A304F0A304F0A304F01215FB5F
:100FA40090089A7420121625121625743FF0A37423
:100FB40007F0900880E054FDF0E04402F0E054FDB6
:0B0FC400F09008B5E4F004F043E808EA
:090FCF00227B017A08121B4A2260
:101A9900CBEFCB9008BCE030E7F9781812162C9000
:101AA90008BBEFF0781012162C9008BAEFF0AF5B74
:101AB900AE5AAD59AC587808120C1C9008B9EFF021
:0C1AC9009008B8E55BF09008BCEBF02240
:101BEB00CBEFCB9008BCE030E7F9781812163790A2
:101BFB0008B8EFF07810121637A3EFF0AF54AE53CE
:101C0B00AD52AC517808120C1CA3EFF0A3E554F0C5
:041C1B00A3EBF02225
:101E5A008F1A9008BCE030E7F978B87F04121605AB
:071E6A009008BCE51AF0220C
:061B4A008B508A51895204
:101B5000E4FFEFC39557E5566480F8748098501FF2
:101B6000AB53AA54A9558F82758300120BCDAB508D
:0F1B7000AA51A9528F82758300120BFA0F80D3EE
:011B7F002243
:02186C008F08E3
:10186E00E4FB901AE2120C42C374039B75F008A4B9
:10187E00F9F8120C1C74092BF8C6EFC60BBB04E268
:10188E00E5087012530B7F530C80430C40FB12186B
:10189E00BD4420F08011430B80530C80430C407BE1
:0E18AE00001218BD54DFF09008B5E4F004F00D
:0F18BC00227A0079097F02121E5A9008E3E02277
:101EBE009008B67480F074A0121651440112161CCC
:011ECE0022F1
:0E1F1F0012165C748012165154FE12161C220B
:0D001E009008B5E4F0900885EF12161C2242
:091F390012166354D712161B2284
:091F420012166354F912161B2259
:0F1F01009008B5E4F0900884E054F012161B220B
:101CE40078877BFF7A1A79D512160378957C087D5C
:101CF400017BFF7A1A79D57E007F05120BA7121695
:021D04006D224E
:071F5A001215E812166D22BA
:0C1F2D00900028EFF01215E812166D224B
:101B1100802FEF54716031EF30E40912165C9008A8
:101B2100C07410F0EF30E60C9008B67480F09008A5
:101B3100C07440F0EF30E5069008C07420F0121632
:081B41005C9008C0E0FF80CABF
:011B49002279
:10180000CAEBCAEF541FFF9008E1E054E04FF0ED3F
:101810005403C43354E0FFE0549F4FF030120B7573
:101820005B49755ADC7559ED8009755B49755ADC61
:101830007559EC7558B47F04121A99EA54037E0066
:101840007816C333CE33CED8F9FFEE3395E0FDFCE6
:10185000EF44C0FFEE4486FEED4424FDEC44198FB6
:0C1860005B8E5A8D59F5587F03021A99CF
:101C770090090074A5F07449F0ED900902F0ECA307
:101C8700F02290090574A5F0A374C3F022EB25E0B8
:071C97004441900901F02215
:101D4700CAEFCAEA7003121C89121C77A3EBF0EAE8
:101D570025E04481900901F0900901E020E7F9228C
:101C9E00CBEFCB121C77121C94900901E020E6F9D1
:101CAE00121C77121C94900901E020E6F9900904A9
:031CBE00E0FF2222
:101CC100CBEFCBEB7003121C899009017401F01268
:101CD1001C77EB25E04421900901F0900901E020F7
:031CE100E5F92200
:071F6100E4FDFCFF021C9EE1
:101C4F0020322020002D2D2D2D2D2D2D2D2D2D2D04
:101C5F002D2D2D2D2D2D6B625F6C65645F7374615F
:081C6F003D202562780D0A00FA
:04005E000217000A7B
:0F1F100014F00518E518229008B6F09008C022CA
:03005B00021F4B36
:081F4B00C0E053C0F7D0E03202
:1013A6009008B7E512F0900005E09008B7F09000BD
:1013B60006E09008B7F0900007E09008B7F09000BC
:1013C60008E09008B7F0900009E09008B7F09000A8
:1013D6000AE09008B7F090000BE09008B7F0900094
:1013E6000CE09008B7F090000DE09008B7F0900080
:1013F6000EE09008B7F090000FE09008B7F090006C
:1014060010E09008B7F0900011E09008B7F00518CA
:10141600E51870020517121F1070020517121F102B
:1014260070020517121F1070020517121F107002A6
:05143600051714F0226F
:081783008B0D8A0E890F8D10F9
:10178B009008B674A0F07480F0900880E054FDF0DF
:10179B00E04402F09008C07470F07F327E00121E9D
:1017AB00879008B67460F0E4FFEFC395105015AB4B
:1017BB000DAA0EA90F8F82758300120BCD9008B75F
:1017CB00F00F80E59008B6E4F043E8084386015338
:1017DB00E8F79008C0E0FF547060F7EF30E5037F47
:1017EB002022EF30E4037F10227BFF7A1C794F120B
:0417FB0000C87F1093
:0117FF0022C7
:101300009008B5E4F08061E54F54716063E54F30BB
:02131000E631C4
:101312009008C4E0F550B4011C9008B67440F00087
:1013220000A3E0F5117BFF7A1C7954F5561200C830
:101332009008B6E4F07480121F177440F0E4786BE2
:01134200F6B4
:10134300E54F30E50C74A0121F177420F0E4786B9E
:10135300F6E54F30E40F9008B67480F074A0F09077
:1013630008C07410F09008C0E0F54F809790088093
:10137300E04402F0E4FF121F2D9008867427F01258
:101383001F1F9008B67460F07F0A7E00121E87123A
:1013930013A69008B6E4F09008B504F07F647E00CD
:0313A300021E87A0
:1007AD00636C722062617420636872670D0A006960
:1007BD006E746F2062617420636872670D0A006247
:1007CD006B323533352074782E2E2E0D0A006E6562
:1007DD0074727869643D25627820256278202562DF
:1007ED00782025627820256278202D2D20256278AD
:1007FD000D0A00696E69742072660D0A00696E69D2
:10080D0074206F6B0D0A0053657420524620736976
:10081D006E6765776176650D0A00646F20706F777E
:10082D00657220646F776E0D0A005072696E7420C8
:10083D00424B323533352052462052656720537472
:10084D00617274203A0A00424B323430315F434FAB
:10085D004E464947203A2030782562780A00424BAF
:10086D00323430315F454E4141203A203078256297
:10087D00780A00424B323430315F454E5258203A9F
:10088D002030782562780A00424B323430315F4196
:10089D0057203A2030782562780A00424B323430A6
:1008AD00315F52455452203A2030782562780A0043
:1008BD00424B323430315F52464348203A20307833
:1008CD002562780A00424B323430315F534554551E
:1008DD0050203A2030782562780A00424B3234306D
:1008ED00315F52305F41444452203A2030783025F8
:1008FD0062780030256278002562780A00424B321A
:10090D003430315F52315F414444523A20307830B7
:10091D0025627800424B323430315F52325F4144B0
:10092D0044523A2030782562780A00424B323430F6
:10093D00315F52335F41444452203A203078256272
:10094D00780A00424B323430315F52345F414444B7
:10095D0052203A2030782562780A00424B323430EA
:10096D00315F52355F41444452203A203078256240
:10097D00780A00424B323430315F54585F41444461
:10098D0052203A2030783025627800424B32343094
:10099D00315F52305F5057203A2030782562780A07
:1009AD0000424B323430315F52315F5057203A2084
:1009BD0030782562780A00424B323430315F523242
:1009CD005F5057203A2030782562780A00424B322A
:1009DD003430315F52335F5057203A2030782562E2
:1009ED00780A00424B323430315F52345F50572019
:1009FD003A2030782562780A00424B323430315F2C
:100A0D0052355F5057203A2030782562780A0042DF
:100A1D004B323430315F44594E5044203A203078B7
:100A2D002562780A00424B323430315F46454154DD
:100A3D00555245203A203078302562780A00424BD5
:100A4D00323430315F4346475F30435F30203A20C8
:100A5D003078302562780025627800302562780A7A
:100A6D0000424B323430315F4346475F30445F3094
:100A7D00203A20307825627800424B323430315F95
:100A8D0052414D505F5441425F30203A203078251D
:100A9D006278200025627820003025627820005091
:100AAD0072696E7420424B323533352052462052D6
:100ABD00656720456E643B0A0073797374656D201C
:0A0ACD00696E6974206F6B0D0A005A
:101E71000546E546C3940422E0FB7C00E4FF229082
:061E810008B57401F02217
:10123600D3E51494CCE51394024018E5456005E423
:10124600F545F546121E7150030212FF754604E479
:10125600F54322D3E5149490E5139402401BE5452B
:1012660064016006754501E4F546121E71500302DD
:1012760012FF75460475430122D3E514945CE51309
:1012860094024018E54564026006754502E4F54699
:10129600121E71406475460475430222D3E5149408
:1012A60039E51394024018E5456403600675450365
:1012B600E4F546121E71404175460475430322D378
:1012C600E5149428E51394024018E5456404600685
:1012D600754504E4F546121E71401E7546047543B5
:1012E6000422E54564056006754505E4F546121ECB
:0A12F6007140067546047543052299
:1019C30030132530810BE547C39404500705478046
:1019D30003E4F547E547C394044033C213E4F547F2
:1019E3007BFF7A0779AD802320810BE547C39404FD
:1019F300500705478003E4F547E547C39404400EC9
:0F1A0300D213E4F5477BFF7A0779BC1200C822A3
:101DDF00EF30E006C2B7C2B68004D2B7D2B6EF304A
:0C1DEF00E105C2B6C2B722D2B6D2B722BC
:10197200E543C39404501F900015E06007E5123060
:10198200E523800E786EE6600916E630E4028015E3
:1019920080007F018027900015E0600DE51230E5A0
:1019A200047F028018E4FF8014786EE6600D16E66C
:1019B20030E404E4FF80067F0280027F02121DDF12
:0119C2002202
:101A1200E4900015F0D200C203C204C207C201C2A0
:101A220013900000F0A3F0900016F0A3F0900002D3
:101A3200F0900004F0900014F0F547F511FE7F0DD0
:101A4200FD7B017A007905120C5EE4900012F090A1
:041A52000003F0227B
:031F6800D208227A
:1014CC00120003121920C2AF121DFB7BFF7A0779A1
:1014DC00CC1200C8121A12121B80E4900028F0A340
:1014EC0004F0A304F0A304F0A37464F07BFF7A0768
:1014FC0079DB900028E0F556A3E0F557A3E0F5580A
:10150C00A3E0F559755A64900002E0F55B1200C82F
:10151C007BFF7A0879001200C8120EC49008B5E45B
:10152C00F0900880E04402F0121B11121F5A900830
:10153C00847414F09008867427F0121F1F121E80FA
:10154C00D2007BFF7A08790A1200C8D2A9D2AF2246
:101BB6007BFF7A0879141200C89008B5E4F0121F6A
:101BC6001F9008B5E4F0900885742CF0121E80E48E
:101BD600FF12186C121E807FF47E01121D06A2B73A
:051BE600B392B780F28C
:10002E00E4FDFCFF121CC19000297D11121E7912F5
:10003E001D4790002A7D12121E79121D4790002B2B
:0B004E00E0FB7D137C00E4FF021D4777
:101B80007D11121BAE900029EFF07D12121BAE905A
:101B9000002AEFF07D137C00E4FF121C9E90002BC6
:101BA000EFF0E4900028F090002C7464F0227C00A8
:061BB000E4FF121C9E225E
:101D6700C2AF7BFF7A0879271200C8900880E05439
:0F1D7700FDF09008B5E4F0FF121DDFC29180FE71
:100403007A0879371207A3121D067A0879549008DF
:10041300801206B17A08796B9008811206B17A08C6
:1004230079809008821206C17A0879959008831220
:1004330006C17A0879A89008841206D17A0879BD92
:100443009008851206D17A0879D29008861206E1BF
:100453007A0879E89008871206E19008881205D196
:1004630090088912066590088A1205D190088B12AC
:1004730007737A09790A90088C1206F190088D1295
:1004830005FD7A09790090088E12079590088F125E
:1004930005FD9008901207737A097921900891124B
:1004A30006F17A0979389008921207017A0979508E
:1004B3009008931207017A0979689008941207113A
:1004C3007A097980900895120711900896120629E7
:1004D3009008971206297BFF9008981206659008EA
:1004E3009912063D7A09799890089A1207217A0998
:1004F30079AE90089B1207217A0979C490089C125F
:1005030007317A0979DA90089D1207317A0979F06F
:1005130090089E1207417A0A790690089F120741B4
:100523007A0A791C9008A01207517A0A7932900846
:10053300A11207517A0A794B9008A21207859008F5
:10054300A31206519008A41206519008A51206772B
:100553007A0A796E9008A61207859008A712068B6F
:100563009008A812068B9008A91206777BFF7A0AD7
:1005730079869008AA1207959008AB1205E79008B0
:10058300AC12069F7BFF9008AD12069F9008AE1237
:1005930005E79008AF1207619008B01206139008A0
:1005A300B11207619008B21206137A0A79A1900872
:1005B300B3E0F5561200C87F0A7E00121D069008AC
:1005C300B412063D7A0A79AC1207A3021D067BFF1B
:1005D3007A097900E0F5561200C87F0A7E00121DE1
:1005E300067BFF227BFF7A0A79A1E0F5561200C849
:1005F3007F0A7E00121D067BFF227BFF7A097900AA
:10060300E0F5561200C87F0A7E00121D067BFF220A
:100613007BFF7A0A79A1E0F5561200C87F0A7E00B3
:10062300121D067BFF227BFF7A097900E0F5561243
:1006330000C87F0A7E00121D06227BFF7A09790516
:10064300E0F5561200C87F0A7E00121D06227BFFCA
:100653007A0A7964E0F5561200C87F0A7E00121DFB
:1006630006227A097900E0F5561200C87F0A7E0057
:10067300121D06227BFF7A0A7968E0F5561200C83C
:100683007F0A7E00121D06227BFF7A0A7964E0F559
:10069300561200C87F0A7E00121D06227A0A79A626
:1006A300E0F5561200C87F0A7E00121D06227BFF6A
:1006B300E0F5561200C87F0A7E00121D06227BFF5A
:1006C300E0F5561200C87F0A7E00121D06227BFF4A
:1006D300E0F5561200C87F0A7E00121D06227BFF3A
:1006E300E0F5561200C87F0A7E00121D06227BFF2A
:1006F300E0F5561200C87F0A7E00121D06227BFF1A
:10070300E0F5561200C87F0A7E00121D06227BFF09
:10071300E0F5561200C87F0A7E00121D06227BFFF9
:10072300E0F5561200C87F0A7E00121D06227BFFE9
:10073300E0F5561200C87F0A7E00121D06227BFFD9
:10074300E0F5561200C87F0A7E00121D06227BFFC9
:10075300E0F5561200C87F0A7E00121D06227A0AAF
:1007630079A1E0F5561200C87F0A7E00121D062209
:100773007A097905E0F5561200C87F0A7E00121D3A
:1007830006227BFFE0F5561200C87F0A7E00121D89
:100793000622E0F5561200C87F0A7E00121D0622CB
:0A07A3007BFF1200C87F0A7E0022CF
:10167400121F681214CCC208D209C20A12116B7F5D
:10168400051216FD7BFF7A0A79C61200C8120403FC
:10169400D2A93006FBC2060549E54970020548C3D4
:1016A4009432E54894005007D2B67524018022C3D1
:1016B400E5499432E54894004012D3E5499464E541
:1016C4004894005007C2B6E4F5248005E4F548F5D3
:1016D40049054BE54B7002054AD39405E54A94004D
:1016E4004010E4F54AF54B1213000512120CEB12EC
:0916F40003C2D2A975860180979A
:1010030029000000000000000000000000000000B4
:1010130000000000000000000000000000000000CD
:1010230000000000000000000000000000000000BD
:1010330000000000000000000000000000000000AD
:10104300000000000000000000000000000000009D
:10105300000000000000000000000000000000008D
:10106300000000000000000000000000000000007D
:10107300000000000000000000000000000000006D
:101083000000000000000000022300000000000038
:10109300000000000000000000000000000000004D
:1010A300000000000000000000000000000000003D
:1010B300000000000000000000000000000000002D
:1010C300000000000000000000000000000000001D
:1010D300000000000000000000000000000000000D
:1010E30000000000000000000000000000000000FD
:1010F30000000000000000000000000000000000ED
:1011030000000000000000000000000000000000DC
:1011130000000000000000000000000000000000CC
:1011230000000000000000000000000000000000BC
:1011330000000000000000000000000000000000AC
:10114300000000000000000000000000000000009C
:10115300000000000000000000000000000000008C
:08116300000000000000000084
:101D86007419254FF582E43400F583E0227E007D48
:0F1D9600007B01020C5E7E007D007B01020C5E73
:1018CB007F0F7A007919121D93900019E0FF308079
:1018DB00047E0080027E01EF4E900019F0A3E0FF22
:1018EB003081047E0080027E01EF4E90001AF09052
:1018FB000027E0FF3082047E0080027E40EF4E9096
:10190B000027F0E0FF3083047E0080027E80EF4EE4
:05191B00900027F022FE
:101ECF00E4FFFE74192E121D8ACF4FCF0EBE0FF3F3
:011EDF0022E0
:101EE0007F0A7E00121D061218CB121ECFEF70F073
:011EF00022CF
:1003C2007F047A00790C121D93900027E0FD30E43F
:1003D2000790000CE04401F0ED30E50790000CE0DE
:1003E2004402F0900027E030E60690000D7405F01C
:0E03F200900027E030E70690000E7405F02220
:100CEB007F077A007905121D9C7F027A007910121A
:100CFB001D9C786CE6FF08E6786FCFF608EFF6E4FC
:100D0B00786CF608F61218CBC205E4F54F121D8667
:100D1B00FF121EF1EFD394014074E54F04F550E53B
:100D2B0050C3940E506874192550121D8AFF121E61
:100D3B00F1EFD39401405274192550121D8AFF1202
:100D4B001EF17E00EEC0E0EFC0E0121D86FF121E0A
:100D5B00F1EFFDD0E02DFFD0E03400FEEEC0E0EF70
:100D6B00C0E074192550121D8AFF121D864FFF1209
:100D7B001EF1EFFDD0E0FFD0E0FEC3ED9FEE6480EF
:100D8B00F87480985003D205220550020D2A054FA6
:0F0D9B00E54FC3940E5003020D187D01E4F54F90
:100DAA00121D86F5516075E4F550E55130E05FE5B6
:100DBA004FC454F0247BF582E43410F58375F002B5
:100DCA00E550120C52E493FA740193FBEA540FFFB4
:100DDA00900010E054F04FF0EBA3F0E54F75F008E7
:100DEA00A42403F582E43410F583E5822550F582C4
:100DFA00E43583F583E493FFCEEDCE0D74052EF52D
:100E0A0082E43400F583EFF0EDD394065019E551EE
:0C0E1A00C313F5510550E5506408708EBC
:100E2600054FE54F640F6003020DAA900027E0FD11
:100E360030E007900010E04410F0ED30E10790003C
:100E460010E04420F0900027E030E207900010E028
:100E56004440F0900026E0FD30E007900005E044B5
:100E660001F0ED30E107900005E04402F090002625
:100E7600E030E207900005E04404F0900026E0FD33
:100E860030E307900005E04408F0ED30E4079000F9
:100E960005E04410F0900026E030E507900005E0FC
:100EA6004420F0900026E0FD30E607900005E0447F
:0D0EB60040F0ED30E707900005E04480F0CB
:010EC300220C
:10156800021674E493A3F8E493A34003F68001F20F
:1015780008DFF48029E493A3F85407240CC8C33384
:10158800C4540F4420C8834004F456800146F6DF53
:10159800E4800B010204081020408090005EE47E85
:1015A800019360BCA3FF543F30E509541FFEE49348
:1015B800A360010ECF54C025E060A840B8E493A30F
:1015C800FAE493A3F8E493A3C8C582C8CAC583CA3A
:1015D800F0A3C8C582C8CAC583CADFE9DEE780BEF2
:01006200009D
:100AD700E709F608DFFA8046E709F208DFFA803E01
:100AE70088828C83E709F0A3DFFA8032E309F608EE
:100AF700DFFA8078E309F208DFFA807088828C8356
:100B0700E309F0A3DFFA806489828A83E0A3F60809
:100B1700DFFA805889828A83E0A3F208DFFA804CE3
:100B270080D280FA80C680D4806980F280338010BA
:100B370080A680EA809A80A880DA80E280CA803323
:100B470089828A83ECFAE493A3C8C582C8CCC5839B
:100B5700CCF0A3C8C582C8CCC583CCDFE9DEE7806B
:100B67000D89828A83E493A3F608DFF9ECFAA9F0EA
:100B7700EDFB2289828A83ECFAE0A3C8C582C8CC40
:100B8700C583CCF0A3C8C582C8CCC583CCDFEADE59
:100B9700E880DB89828A83E493A3F208DFF980CCBB
:100BA70088F0EF60010E4E60C388F0ED2402B404B4
:100BB7000050B9F582EB2402B4040050AF2323455B
:060BC7008223900B27734E
:100BCD00BB010CE58229F582E5833AF583E02250DD
:100BDD0006E92582F8E622BBFE06E92582F8E22227
:0D0BED00E58229F582E5833AF583E4932241
:100BFA00F8BB010DE58229F582E5833AF583E8F031
:100C0A00225006E92582C8F622BBFE05E92582C8DC
:020C1A00F222C4
:100C1C00E8600FECC313FCED13FDEE13FEEF13FFB6
:030C2C00D8F122DA
:100C2F00E8600FEFC333FFEE33FEED33FDEC33FC23
:030C3F00D8F122C7
:100C4200E493FC740193FD740293FE740393FF22F8
:0C0C5200A42582F582E5F03583F58322AD
:10006600E5622456F8E60562227853301002785687
:10007600E475F001120CB5020C8A2009EB7F2ED232
:10008600098018EF540F2490D43440D4FF300D0B60
:10009600EF24BFB41A0050032461FFE56360021524
:1000A600630566E5667002056530100D7853E475E4
:1000B600F001120CB5EF020CA3021A567403D2100B
:1000C6008003E4C210F5628B538A548955E4F563C4
:1000D600F565F566E56360077F201200A180F5757A
:1000E60064FFC20AC209C20BC20CC20EC20FC21101
:1000F60012006FFF700D3010057F001200B2AF6660
:10010600AE6522B4255FC2D5C20D12006FFF24D0A2
:10011600B40A00501A75F00A786330D50508B6FFA0
:100126000106C6A426F620D5047002D20C80D92476
:10013600CFB41A00EF5004C2E5D20D0202B2D20AC1
:1001460080C6D20980C0D20B80BCD2D580BAD20E6E
:1001560080B47F201200A1200B077401B563004014
:10016600F1120066FF1200A10200DAD211D20F804E
:1001760095120066FB120066FA120066F94A4B7089
:100186000679837A037BFF200B2EE563602A7E00C7
:100196008E82758300120BCD60060EEE656470F0DC
:1001A600C2D5EBC0E0EAC0E0E9C0E0EE1202F9D049
:1001B600E0F9D0E0FAD0E0FB120C8AFF60AAEBC0AF
:1001C600E0EAC0E0E9C0E01200A1D0E02401F9D0E5
:1001D600E03400FAD0E0FBE5640460DCD564D98045
:1001E600877BFF7A0279F5D20B809C7910800279A1
:1001F60008C20FC2118008D2D5790A8004790AC2D2
:10020600D5E564047002F564E4FAFDFEFF120066AB
:10021600FC7B08200A13120066FD7B1030090A12C7
:100226000066FE120066FF7B20EC3382D592D55025
:1002360013C3E43009069FFFE49EFEE4200A039DF3
:10024600FDE49CFCE4CBF8C20AEC700CCFCECDCC1E
:10025600E824F8F870F38017C3EF33FFEE33FEEDB2
:1002660033FDEC33FCEB33FB994002FB0FD8E9EB93
:10027600300A05F8D0E0C448B20AC0E00AEC4D4E98
:100286004F78207B0070C2EAB5640040BCC0E01223
:1002960002FBD0F0D0E0200A04C4C0E0C4B20AC019
:1002A600F012008AD0F0D5F0EB0200DA120CC5018C
:1002B600775301F15801484C01444201F54F01FDC5
:0F02C6004401FD49015D4302035501E74601E78D
:1002D5004501E74703A350014C2D01502E01732B17
:1002E500015423017120038C2A010C480000016B85
:1002F5003F3F3F00790AA2D5200C14300E09B910F2
:10030500020404B9080104A2D5200F0250010420FB
:100315000B68920BB563005034C0E07F20300C1998
:100325007F30A20B720F720E500F120352C20BC216
:100335000FC20EC2117F30800F300E03E9C0E012EC
:1003450000A1300E03D0E0F9D0E0B563CC300E1734
:100355007F30B9100C1200A17F58300D077F7880CF
:1003650003B908031200A1300B057F2D0200A17F00
:10037500202011F87F2B200FF322920B80CF286EBF
:10038500756C6C2900D20A120066300AF8C20A7828
:100395006330D50108F602010C2D5043495812006F
:1003A500662403B405004001E490039E9312009275
:0D03B500743A120092D20C7563040201F13B
:100C5E00EF4E6012EF60010EEDBB010B89828A83AD
:100C6E00F0A3DFFCDEFA2289F05007F709DFFCA9BA
:0C0C7E00F022BBFEFCF309DFFCA9F02211
:100C8A00BB010689828A83E0225002E722BBFE0268
:090C9A00E32289828A83E493229B
:100CA300BB010689828A83F0225002F722BBFE0130
:020CB300F3222A
:100CB500FAE6FB0808E6F925F0F618E6CA3AF62240
:100CC500D083D082F8E4937012740193700DA3A3BE
:100CD50093F8740193F5828883E4737402936860D2
:060CE500EFA3A3A380DFD2
:00000001FF
